{
  "_format": "hh-sol-artifact-1",
  "contractName": "TeamPointsFactory",
  "sourceName": "contracts/TeamPointsFactory.sol",
  "abi": [
    {
      "anonymous": false,
      "inputs": [
        {
          "indexed": true,
          "internalType": "address",
          "name": "contractAddress",
          "type": "address"
        },
        {
          "indexed": true,
          "internalType": "address",
          "name": "initialOwner",
          "type": "address"
        },
        {
          "indexed": false,
          "internalType": "string",
          "name": "name",
          "type": "string"
        },
        {
          "indexed": false,
          "internalType": "string",
          "name": "symbol",
          "type": "string"
        }
      ],
      "name": "TeamPointsCreated",
      "type": "event"
    },
    {
      "inputs": [
        {
          "internalType": "uint256",
          "name": "",
          "type": "uint256"
        }
      ],
      "name": "allTeamPoints",
      "outputs": [
        {
          "internalType": "address",
          "name": "",
          "type": "address"
        }
      ],
      "stateMutability": "view",
      "type": "function"
    },
    {
      "inputs": [
        {
          "internalType": "string",
          "name": "name",
          "type": "string"
        },
        {
          "internalType": "string",
          "name": "symbol",
          "type": "string"
        }
      ],
      "name": "deployTeamPoints",
      "outputs": [
        {
          "internalType": "address",
          "name": "contractAddress",
          "type": "address"
        }
      ],
      "stateMutability": "nonpayable",
      "type": "function"
    },
    {
      "inputs": [],
      "name": "getAllTeamPoints",
      "outputs": [
        {
          "internalType": "address[]",
          "name": "",
          "type": "address[]"
        }
      ],
      "stateMutability": "view",
      "type": "function"
    },
    {
      "inputs": [],
      "name": "getTeamPointsCount",
      "outputs": [
        {
          "internalType": "uint256",
          "name": "",
          "type": "uint256"
        }
      ],
      "stateMutability": "view",
      "type": "function"
    }
  ],
  "bytecode": "0x608060405234801561001057600080fd5b50613cf9806100206000396000f3fe60806040523480156200001157600080fd5b5060043610620000525760003560e01c80635608b3651462000057578063665f8f5f146200008d5780639651862614620000af578063fc09381d14620000e5575b600080fd5b6200007560048036038101906200006f919062000361565b62000107565b604051620000849190620003d8565b60405180910390f35b6200009762000147565b604051620000a69190620004c3565b60405180910390f35b620000cd6004803603810190620000c7919062000649565b620001d7565b604051620000dc9190620003d8565b60405180910390f35b620000ef620002f8565b604051620000fe9190620006df565b60405180910390f35b600081815481106200011857600080fd5b906000526020600020016000915054906101000a900473ffffffffffffffffffffffffffffffffffffffff1681565b60606000805480602002602001604051908101604052809291908181526020018280548015620001cd57602002820191906000526020600020905b8160009054906101000a900473ffffffffffffffffffffffffffffffffffffffff1673ffffffffffffffffffffffffffffffffffffffff168152602001906001019080831162000182575b5050505050905090565b60008033600080610fa08787604051620001f19062000304565b6200020296959493929190620007ef565b604051809103906000f0801580156200021f573d6000803e3d6000fd5b5090508091506000829080600181540180825580915050600190039060005260206000200160009091909190916101000a81548173ffffffffffffffffffffffffffffffffffffffff021916908373ffffffffffffffffffffffffffffffffffffffff1602179055503373ffffffffffffffffffffffffffffffffffffffff168273ffffffffffffffffffffffffffffffffffffffff167ff8e87bdac81c247a288b9046d1f75bf949a7edd2978243eb1eeb99da79f9ffad8686604051620002e99291906200086a565b60405180910390a35092915050565b60008080549050905090565b61341e80620008a683390190565b6000604051905090565b600080fd5b600080fd5b6000819050919050565b6200033b8162000326565b81146200034757600080fd5b50565b6000813590506200035b8162000330565b92915050565b6000602082840312156200037a57620003796200031c565b5b60006200038a848285016200034a565b91505092915050565b600073ffffffffffffffffffffffffffffffffffffffff82169050919050565b6000620003c08262000393565b9050919050565b620003d281620003b3565b82525050565b6000602082019050620003ef6000830184620003c7565b92915050565b600081519050919050565b600082825260208201905092915050565b6000819050602082019050919050565b6200042c81620003b3565b82525050565b600062000440838362000421565b60208301905092915050565b6000602082019050919050565b60006200046682620003f5565b62000472818562000400565b93506200047f8362000411565b8060005b83811015620004b65781516200049a888262000432565b9750620004a7836200044c565b92505060018101905062000483565b5085935050505092915050565b60006020820190508181036000830152620004df818462000459565b905092915050565b600080fd5b600080fd5b6000601f19601f8301169050919050565b7f4e487b7100000000000000000000000000000000000000000000000000000000600052604160045260246000fd5b6200053c82620004f1565b810181811067ffffffffffffffff821117156200055e576200055d62000502565b5b80604052505050565b60006200057362000312565b905062000581828262000531565b919050565b600067ffffffffffffffff821115620005a457620005a362000502565b5b620005af82620004f1565b9050602081019050919050565b82818337600083830152505050565b6000620005e2620005dc8462000586565b62000567565b905082815260208101848484011115620006015762000600620004ec565b5b6200060e848285620005bc565b509392505050565b600082601f8301126200062e576200062d620004e7565b5b813562000640848260208601620005cb565b91505092915050565b600080604083850312156200066357620006626200031c565b5b600083013567ffffffffffffffff81111562000684576200068362000321565b5b620006928582860162000616565b925050602083013567ffffffffffffffff811115620006b657620006b562000321565b5b620006c48582860162000616565b9150509250929050565b620006d98162000326565b82525050565b6000602082019050620006f66000830184620006ce565b92915050565b60008115159050919050565b6200071381620006fc565b82525050565b6000819050919050565b6000819050919050565b60006200074e62000748620007428462000719565b62000723565b62000326565b9050919050565b62000760816200072d565b82525050565b600081519050919050565b600082825260208201905092915050565b60005b83811015620007a257808201518184015260208101905062000785565b60008484015250505050565b6000620007bb8262000766565b620007c7818562000771565b9350620007d981856020860162000782565b620007e481620004f1565b840191505092915050565b600060c082019050620008066000830189620003c7565b62000815602083018862000708565b62000824604083018762000708565b62000833606083018662000755565b8181036080830152620008478185620007ae565b905081810360a08301526200085d8184620007ae565b9050979650505050505050565b60006040820190508181036000830152620008868185620007ae565b905081810360208301526200089c8184620007ae565b9050939250505056fe60806040523480156200001157600080fd5b506040516200341e3803806200341e83398181016040528101906200003791906200057e565b818181600390816200004a919062000899565b5080600490816200005c919062000899565b505050620000917fa49807205ce4d355092ef5a8a18f56e8913cf4a201fbe287825b095693c21775806200011360201b60201c565b620000c37fa49807205ce4d355092ef5a8a18f56e8913cf4a201fbe287825b095693c21775876200017760201b60201c565b50600160088190555084600660006101000a81548160ff02191690831515021790555083600660016101000a81548160ff0219169083151502179055508260078190555050505050505062000980565b600062000126836200027b60201b60201c565b90508160056000858152602001908152602001600020600101819055508181847fbd79b86ffe0ab8e8776151514217cd7cacd52c909f66475c3af44e129f0b00ff60405160405180910390a4505050565b60006200018b83836200029b60201b60201c565b620002705760016005600085815260200190815260200160002060000160008473ffffffffffffffffffffffffffffffffffffffff1673ffffffffffffffffffffffffffffffffffffffff16815260200190815260200160002060006101000a81548160ff0219169083151502179055506200020c6200030660201b60201c565b73ffffffffffffffffffffffffffffffffffffffff168273ffffffffffffffffffffffffffffffffffffffff16847f2f8788117e7eff1d82e926ec794901d17c78024a50270940304540a733656f0d60405160405180910390a46001905062000275565b600090505b92915050565b600060056000838152602001908152602001600020600101549050919050565b60006005600084815260200190815260200160002060000160008373ffffffffffffffffffffffffffffffffffffffff1673ffffffffffffffffffffffffffffffffffffffff16815260200190815260200160002060009054906101000a900460ff16905092915050565b600033905090565b6000604051905090565b600080fd5b600080fd5b600073ffffffffffffffffffffffffffffffffffffffff82169050919050565b60006200034f8262000322565b9050919050565b620003618162000342565b81146200036d57600080fd5b50565b600081519050620003818162000356565b92915050565b60008115159050919050565b6200039e8162000387565b8114620003aa57600080fd5b50565b600081519050620003be8162000393565b92915050565b6000819050919050565b620003d981620003c4565b8114620003e557600080fd5b50565b600081519050620003f981620003ce565b92915050565b600080fd5b600080fd5b6000601f19601f8301169050919050565b7f4e487b7100000000000000000000000000000000000000000000000000000000600052604160045260246000fd5b620004548262000409565b810181811067ffffffffffffffff821117156200047657620004756200041a565b5b80604052505050565b60006200048b6200030e565b905062000499828262000449565b919050565b600067ffffffffffffffff821115620004bc57620004bb6200041a565b5b620004c78262000409565b9050602081019050919050565b60005b83811015620004f4578082015181840152602081019050620004d7565b60008484015250505050565b60006200051762000511846200049e565b6200047f565b90508281526020810184848401111562000536576200053562000404565b5b62000543848285620004d4565b509392505050565b600082601f830112620005635762000562620003ff565b5b81516200057584826020860162000500565b91505092915050565b60008060008060008060c087890312156200059e576200059d62000318565b5b6000620005ae89828a0162000370565b9650506020620005c189828a01620003ad565b9550506040620005d489828a01620003ad565b9450506060620005e789828a01620003e8565b935050608087015167ffffffffffffffff8111156200060b576200060a6200031d565b5b6200061989828a016200054b565b92505060a087015167ffffffffffffffff8111156200063d576200063c6200031d565b5b6200064b89828a016200054b565b9150509295509295509295565b600081519050919050565b7f4e487b7100000000000000000000000000000000000000000000000000000000600052602260045260246000fd5b60006002820490506001821680620006ab57607f821691505b602082108103620006c157620006c062000663565b5b50919050565b60008190508160005260206000209050919050565b60006020601f8301049050919050565b600082821b905092915050565b6000600883026200072b7fffffffffffffffffffffffffffffffffffffffffffffffffffffffffffffffff82620006ec565b620007378683620006ec565b95508019841693508086168417925050509392505050565b6000819050919050565b60006200077a620007746200076e84620003c4565b6200074f565b620003c4565b9050919050565b6000819050919050565b620007968362000759565b620007ae620007a58262000781565b848454620006f9565b825550505050565b600090565b620007c5620007b6565b620007d28184846200078b565b505050565b5b81811015620007fa57620007ee600082620007bb565b600181019050620007d8565b5050565b601f82111562000849576200081381620006c7565b6200081e84620006dc565b810160208510156200082e578190505b620008466200083d85620006dc565b830182620007d7565b50505b505050565b600082821c905092915050565b60006200086e600019846008026200084e565b1980831691505092915050565b60006200088983836200085b565b9150826002028217905092915050565b620008a48262000658565b67ffffffffffffffff811115620008c057620008bf6200041a565b5b620008cc825462000692565b620008d9828285620007fe565b600060209050601f831160018114620009115760008415620008fc578287015190505b6200090885826200087b565b86555062000978565b601f1984166200092186620006c7565b60005b828110156200094b5784890151825560018201915060208501945060208101905062000924565b868310156200096b578489015162000967601f8916826200085b565b8355505b6001600288020188555050505b505050505050565b612a8e80620009906000396000f3fe608060405234801561001057600080fd5b50600436106101a95760003560e01c806367a4c8fe116100f9578063a9059cbb11610097578063d559f05b11610071578063d559f05b146104e4578063daa22ce914610500578063dd62ed3e1461051c578063e84e581d1461054c576101a9565b8063a9059cbb1461047a578063d3fe516e146104aa578063d547741f146104c8576101a9565b806375b238fc116100d357806375b238fc146103f057806391d148541461040e57806395d89b411461043e578063a217fddf1461045c576101a9565b806367a4c8fe1461038657806370480275146103a457806370a08231146103c0576101a9565b80632121dc751161016657806324d7806c1161014057806324d7806c146103005780632f2ff15d14610330578063313ce5671461034c57806336568abe1461036a576101a9565b80632121dc751461028257806323b872dd146102a0578063248a9ca3146102d0576101a9565b806301ffc9a7146101ae57806306fdde03146101de578063095ea7b3146101fc578063156e29f61461022c5780631785f53c1461024857806318160ddd14610264575b600080fd5b6101c860048036038101906101c39190611e4c565b61057c565b6040516101d59190611e94565b60405180910390f35b6101e66105f6565b6040516101f39190611f3f565b60405180910390f35b61021660048036038101906102119190611ff5565b610688565b6040516102239190611e94565b60405180910390f35b61024660048036038101906102419190612035565b6106ab565b005b610262600480360381019061025d9190612088565b61086c565b005b61026c6109c2565b60405161027991906120c4565b60405180910390f35b61028a6109cc565b6040516102979190611e94565b60405180910390f35b6102ba60048036038101906102b591906120df565b6109df565b6040516102c79190611e94565b60405180910390f35b6102ea60048036038101906102e59190612168565b610a0e565b6040516102f791906121a4565b60405180910390f35b61031a60048036038101906103159190612088565b610a2e565b6040516103279190611e94565b60405180910390f35b61034a600480360381019061034591906121bf565b610a61565b005b610354610a83565b604051610361919061221b565b60405180910390f35b610384600480360381019061037f91906121bf565b610a8c565b005b61038e610b07565b60405161039b9190611e94565b60405180910390f35b6103be60048036038101906103b99190612088565b610b1a565b005b6103da60048036038101906103d59190612088565b610c7d565b6040516103e791906120c4565b60405180910390f35b6103f8610cc5565b60405161040591906121a4565b60405180910390f35b610428600480360381019061042391906121bf565b610ce9565b6040516104359190611e94565b60405180910390f35b610446610d54565b6040516104539190611f3f565b60405180910390f35b610464610de6565b60405161047191906121a4565b60405180910390f35b610494600480360381019061048f9190611ff5565b610ded565b6040516104a19190611e94565b60405180910390f35b6104b2610e10565b6040516104bf91906120c4565b60405180910390f35b6104e260048036038101906104dd91906121bf565b610e16565b005b6104fe60048036038101906104f991906122f1565b610e38565b005b61051a600480360381019061051591906123d1565b61118d565b005b61053660048036038101906105319190612424565b611233565b60405161054391906120c4565b60405180910390f35b61056660048036038101906105619190612088565b6112ba565b60405161057391906120c4565b60405180910390f35b60007f7965db0b000000000000000000000000000000000000000000000000000000007bffffffffffffffffffffffffffffffffffffffffffffffffffffffff1916827bffffffffffffffffffffffffffffffffffffffffffffffffffffffff191614806105ef57506105ee826113a4565b5b9050919050565b60606003805461060590612493565b80601f016020809104026020016040519081016040528092919081815260200182805461063190612493565b801561067e5780601f106106535761010080835404028352916020019161067e565b820191906000526020600020905b81548152906001019060200180831161066157829003601f168201915b5050505050905090565b60008061069361140e565b90506106a0818585611416565b600191505092915050565b7fa49807205ce4d355092ef5a8a18f56e8913cf4a201fbe287825b095693c217756106d581611428565b6000600a60008673ffffffffffffffffffffffffffffffffffffffff1673ffffffffffffffffffffffffffffffffffffffff16815260200190815260200160002054036107615742600a60008673ffffffffffffffffffffffffffffffffffffffff1673ffffffffffffffffffffffffffffffffffffffff168152602001908152602001600020819055505b600061076c856112ba565b905060006103e8828561077f91906124f3565b6107899190612564565b6103e86007548761079a91906124f3565b6107a49190612564565b6107ae9190612595565b90506107ba868261143c565b600960008773ffffffffffffffffffffffffffffffffffffffff1673ffffffffffffffffffffffffffffffffffffffff16815260200190815260200160002060009054906101000a900460ff16610864576001600960008873ffffffffffffffffffffffffffffffffffffffff1673ffffffffffffffffffffffffffffffffffffffff16815260200190815260200160002060006101000a81548160ff0219169083151502179055505b505050505050565b7fa49807205ce4d355092ef5a8a18f56e8913cf4a201fbe287825b095693c2177561089681611428565b6108c07fa49807205ce4d355092ef5a8a18f56e8913cf4a201fbe287825b095693c2177583610ce9565b6108ff576040517f08c379a00000000000000000000000000000000000000000000000000000000081526004016108f69061263b565b60405180910390fd5b600160085411610944576040517f08c379a000000000000000000000000000000000000000000000000000000000815260040161093b906126cd565b60405180910390fd5b61096e7fa49807205ce4d355092ef5a8a18f56e8913cf4a201fbe287825b095693c21775836114be565b5060086000815480929190610982906126ed565b91905055507fa3b62bc36326052d97ea62d63c3d60308ed4c3ea8ac079dd8499f1e9c4f80c0f826040516109b69190612725565b60405180910390a15050565b6000600254905090565b600660009054906101000a900460ff1681565b6000806109ea61140e565b90506109f78582856115b1565b610a02858585611645565b60019150509392505050565b600060056000838152602001908152602001600020600101549050919050565b6000610a5a7fa49807205ce4d355092ef5a8a18f56e8913cf4a201fbe287825b095693c2177583610ce9565b9050919050565b610a6a82610a0e565b610a7381611428565b610a7d8383611739565b50505050565b60006012905090565b610a9461140e565b73ffffffffffffffffffffffffffffffffffffffff168173ffffffffffffffffffffffffffffffffffffffff1614610af8576040517f6697b23200000000000000000000000000000000000000000000000000000000815260040160405180910390fd5b610b0282826114be565b505050565b600660019054906101000a900460ff1681565b7fa49807205ce4d355092ef5a8a18f56e8913cf4a201fbe287825b095693c21775610b4481611428565b600960008373ffffffffffffffffffffffffffffffffffffffff1673ffffffffffffffffffffffffffffffffffffffff16815260200190815260200160002060009054906101000a900460ff16610bd0576040517f08c379a0000000000000000000000000000000000000000000000000000000008152600401610bc79061278c565b60405180910390fd5b610bfa7fa49807205ce4d355092ef5a8a18f56e8913cf4a201fbe287825b095693c2177583610ce9565b610c7957610c287fa49807205ce4d355092ef5a8a18f56e8913cf4a201fbe287825b095693c2177583611739565b5060086000815480929190610c3c906127ac565b91905055507f44d6d25963f097ad14f29f06854a01f575648a1ef82f30e562ccd3889717e33982604051610c709190612725565b60405180910390a15b5050565b60008060008373ffffffffffffffffffffffffffffffffffffffff1673ffffffffffffffffffffffffffffffffffffffff168152602001908152602001600020549050919050565b7fa49807205ce4d355092ef5a8a18f56e8913cf4a201fbe287825b095693c2177581565b60006005600084815260200190815260200160002060000160008373ffffffffffffffffffffffffffffffffffffffff1673ffffffffffffffffffffffffffffffffffffffff16815260200190815260200160002060009054906101000a900460ff16905092915050565b606060048054610d6390612493565b80601f0160208091040260200160405190810160405280929190818152602001828054610d8f90612493565b8015610ddc5780601f10610db157610100808354040283529160200191610ddc565b820191906000526020600020905b815481529060010190602001808311610dbf57829003601f168201915b5050505050905090565b6000801b81565b600080610df861140e565b9050610e05818585611645565b600191505092915050565b60075481565b610e1f82610a0e565b610e2881611428565b610e3283836114be565b50505050565b7fa49807205ce4d355092ef5a8a18f56e8913cf4a201fbe287825b095693c21775610e6281611428565b8484905087879050148015610e7c57508282905087879050145b610ebb576040517f08c379a0000000000000000000000000000000000000000000000000000000008152600401610eb290612840565b60405180910390fd5b60005b87879050811015611183576000600a60008a8a85818110610ee257610ee1612860565b5b9050602002016020810190610ef79190612088565b73ffffffffffffffffffffffffffffffffffffffff1673ffffffffffffffffffffffffffffffffffffffff1681526020019081526020016000205403610fa35742600a60008a8a85818110610f4f57610f4e612860565b5b9050602002016020810190610f649190612088565b73ffffffffffffffffffffffffffffffffffffffff1673ffffffffffffffffffffffffffffffffffffffff168152602001908152602001600020819055505b6000610fd5898984818110610fbb57610fba612860565b5b9050602002016020810190610fd09190612088565b6112ba565b905060006103e882878786818110610ff057610fef612860565b5b9050602002013561100191906124f3565b61100b9190612564565b6103e86007548a8a8781811061102457611023612860565b5b9050602002013561103591906124f3565b61103f9190612564565b6110499190612595565b905061107c8a8a8581811061106157611060612860565b5b90506020020160208101906110769190612088565b8261143c565b600960008b8b8681811061109357611092612860565b5b90506020020160208101906110a89190612088565b73ffffffffffffffffffffffffffffffffffffffff1673ffffffffffffffffffffffffffffffffffffffff16815260200190815260200160002060009054906101000a900460ff16611174576001600960008c8c8781811061110d5761110c612860565b5b90506020020160208101906111229190612088565b73ffffffffffffffffffffffffffffffffffffffff1673ffffffffffffffffffffffffffffffffffffffff16815260200190815260200160002060006101000a81548160ff0219169083151502179055505b50508080600101915050610ebe565b5050505050505050565b7fa49807205ce4d355092ef5a8a18f56e8913cf4a201fbe287825b095693c217756111b781611428565b83600660006101000a81548160ff02191690831515021790555082600660016101000a81548160ff021916908315150217905550816007819055507f1921409135eaf8e2b039b227d66d8ead9edc08d746d0f3a2c133c99d8af900d08484846040516112259392919061288f565b60405180910390a150505050565b6000600160008473ffffffffffffffffffffffffffffffffffffffff1673ffffffffffffffffffffffffffffffffffffffff16815260200190815260200160002060008373ffffffffffffffffffffffffffffffffffffffff1673ffffffffffffffffffffffffffffffffffffffff16815260200190815260200160002054905092915050565b600080600a60008473ffffffffffffffffffffffffffffffffffffffff1673ffffffffffffffffffffffffffffffffffffffff168152602001908152602001600020540361130c576107d0905061139f565b600062ed4e00600a60008573ffffffffffffffffffffffffffffffffffffffff1673ffffffffffffffffffffffffffffffffffffffff168152602001908152602001600020544261135d91906128c6565b6113679190612564565b90506000607d8261137891906124f3565b6107d06113859190612595565b9050610fa08111611396578061139a565b610fa05b925050505b919050565b60007f01ffc9a7000000000000000000000000000000000000000000000000000000007bffffffffffffffffffffffffffffffffffffffffffffffffffffffff1916827bffffffffffffffffffffffffffffffffffffffffffffffffffffffff1916149050919050565b600033905090565b611423838383600161182b565b505050565b6114398161143461140e565b611a02565b50565b600073ffffffffffffffffffffffffffffffffffffffff168273ffffffffffffffffffffffffffffffffffffffff16036114ae5760006040517fec442f050000000000000000000000000000000000000000000000000000000081526004016114a59190612725565b60405180910390fd5b6114ba60008383611a53565b5050565b60006114ca8383610ce9565b156115a65760006005600085815260200190815260200160002060000160008473ffffffffffffffffffffffffffffffffffffffff1673ffffffffffffffffffffffffffffffffffffffff16815260200190815260200160002060006101000a81548160ff02191690831515021790555061154361140e565b73ffffffffffffffffffffffffffffffffffffffff168273ffffffffffffffffffffffffffffffffffffffff16847ff6391f5c32d9c69d2a47ea670b442974b53935d1edc7fd64eb21e047a839171b60405160405180910390a4600190506115ab565b600090505b92915050565b60006115bd8484611233565b90507fffffffffffffffffffffffffffffffffffffffffffffffffffffffffffffffff811461163f578181101561162f578281836040517ffb8f41b2000000000000000000000000000000000000000000000000000000008152600401611626939291906128fa565b60405180910390fd5b61163e8484848403600061182b565b5b50505050565b600073ffffffffffffffffffffffffffffffffffffffff168373ffffffffffffffffffffffffffffffffffffffff16036116b75760006040517f96c6fd1e0000000000000000000000000000000000000000000000000000000081526004016116ae9190612725565b60405180910390fd5b600073ffffffffffffffffffffffffffffffffffffffff168273ffffffffffffffffffffffffffffffffffffffff16036117295760006040517fec442f050000000000000000000000000000000000000000000000000000000081526004016117209190612725565b60405180910390fd5b611734838383611a53565b505050565b60006117458383610ce9565b6118205760016005600085815260200190815260200160002060000160008473ffffffffffffffffffffffffffffffffffffffff1673ffffffffffffffffffffffffffffffffffffffff16815260200190815260200160002060006101000a81548160ff0219169083151502179055506117bd61140e565b73ffffffffffffffffffffffffffffffffffffffff168273ffffffffffffffffffffffffffffffffffffffff16847f2f8788117e7eff1d82e926ec794901d17c78024a50270940304540a733656f0d60405160405180910390a460019050611825565b600090505b92915050565b600073ffffffffffffffffffffffffffffffffffffffff168473ffffffffffffffffffffffffffffffffffffffff160361189d5760006040517fe602df050000000000000000000000000000000000000000000000000000000081526004016118949190612725565b60405180910390fd5b600073ffffffffffffffffffffffffffffffffffffffff168373ffffffffffffffffffffffffffffffffffffffff160361190f5760006040517f94280d620000000000000000000000000000000000000000000000000000000081526004016119069190612725565b60405180910390fd5b81600160008673ffffffffffffffffffffffffffffffffffffffff1673ffffffffffffffffffffffffffffffffffffffff16815260200190815260200160002060008573ffffffffffffffffffffffffffffffffffffffff1673ffffffffffffffffffffffffffffffffffffffff1681526020019081526020016000208190555080156119fc578273ffffffffffffffffffffffffffffffffffffffff168473ffffffffffffffffffffffffffffffffffffffff167f8c5be1e5ebec7d5bd14f71427d1e84f3dd0314c0f7b2291e5b200ac8c7c3b925846040516119f391906120c4565b60405180910390a35b50505050565b611a0c8282610ce9565b611a4f5780826040517fe2517d3f000000000000000000000000000000000000000000000000000000008152600401611a46929190612931565b60405180910390fd5b5050565b600660009054906101000a900460ff1680611a9a5750600073ffffffffffffffffffffffffffffffffffffffff168373ffffffffffffffffffffffffffffffffffffffff16145b611ad9576040517f08c379a0000000000000000000000000000000000000000000000000000000008152600401611ad0906129a6565b60405180910390fd5b600660019054906101000a900460ff16158015611b235750600073ffffffffffffffffffffffffffffffffffffffff168373ffffffffffffffffffffffffffffffffffffffff1614155b15611bb557600960008373ffffffffffffffffffffffffffffffffffffffff1673ffffffffffffffffffffffffffffffffffffffff16815260200190815260200160002060009054906101000a900460ff16611bb4576040517f08c379a0000000000000000000000000000000000000000000000000000000008152600401611bab90612a38565b60405180910390fd5b5b611bc0838383611bc5565b505050565b600073ffffffffffffffffffffffffffffffffffffffff168373ffffffffffffffffffffffffffffffffffffffff1603611c17578060026000828254611c0b9190612595565b92505081905550611cea565b60008060008573ffffffffffffffffffffffffffffffffffffffff1673ffffffffffffffffffffffffffffffffffffffff16815260200190815260200160002054905081811015611ca3578381836040517fe450d38c000000000000000000000000000000000000000000000000000000008152600401611c9a939291906128fa565b60405180910390fd5b8181036000808673ffffffffffffffffffffffffffffffffffffffff1673ffffffffffffffffffffffffffffffffffffffff16815260200190815260200160002081905550505b600073ffffffffffffffffffffffffffffffffffffffff168273ffffffffffffffffffffffffffffffffffffffff1603611d335780600260008282540392505081905550611d80565b806000808473ffffffffffffffffffffffffffffffffffffffff1673ffffffffffffffffffffffffffffffffffffffff168152602001908152602001600020600082825401925050819055505b8173ffffffffffffffffffffffffffffffffffffffff168373ffffffffffffffffffffffffffffffffffffffff167fddf252ad1be2c89b69c2b068fc378daa952ba7f163c4a11628f55a4df523b3ef83604051611ddd91906120c4565b60405180910390a3505050565b600080fd5b600080fd5b60007fffffffff0000000000000000000000000000000000000000000000000000000082169050919050565b611e2981611df4565b8114611e3457600080fd5b50565b600081359050611e4681611e20565b92915050565b600060208284031215611e6257611e61611dea565b5b6000611e7084828501611e37565b91505092915050565b60008115159050919050565b611e8e81611e79565b82525050565b6000602082019050611ea96000830184611e85565b92915050565b600081519050919050565b600082825260208201905092915050565b60005b83811015611ee9578082015181840152602081019050611ece565b60008484015250505050565b6000601f19601f8301169050919050565b6000611f1182611eaf565b611f1b8185611eba565b9350611f2b818560208601611ecb565b611f3481611ef5565b840191505092915050565b60006020820190508181036000830152611f598184611f06565b905092915050565b600073ffffffffffffffffffffffffffffffffffffffff82169050919050565b6000611f8c82611f61565b9050919050565b611f9c81611f81565b8114611fa757600080fd5b50565b600081359050611fb981611f93565b92915050565b6000819050919050565b611fd281611fbf565b8114611fdd57600080fd5b50565b600081359050611fef81611fc9565b92915050565b6000806040838503121561200c5761200b611dea565b5b600061201a85828601611faa565b925050602061202b85828601611fe0565b9150509250929050565b60008060006060848603121561204e5761204d611dea565b5b600061205c86828701611faa565b935050602061206d86828701611fe0565b925050604061207e86828701611fe0565b9150509250925092565b60006020828403121561209e5761209d611dea565b5b60006120ac84828501611faa565b91505092915050565b6120be81611fbf565b82525050565b60006020820190506120d960008301846120b5565b92915050565b6000806000606084860312156120f8576120f7611dea565b5b600061210686828701611faa565b935050602061211786828701611faa565b925050604061212886828701611fe0565b9150509250925092565b6000819050919050565b61214581612132565b811461215057600080fd5b50565b6000813590506121628161213c565b92915050565b60006020828403121561217e5761217d611dea565b5b600061218c84828501612153565b91505092915050565b61219e81612132565b82525050565b60006020820190506121b96000830184612195565b92915050565b600080604083850312156121d6576121d5611dea565b5b60006121e485828601612153565b92505060206121f585828601611faa565b9150509250929050565b600060ff82169050919050565b612215816121ff565b82525050565b6000602082019050612230600083018461220c565b92915050565b600080fd5b600080fd5b600080fd5b60008083601f84011261225b5761225a612236565b5b8235905067ffffffffffffffff8111156122785761227761223b565b5b60208301915083602082028301111561229457612293612240565b5b9250929050565b60008083601f8401126122b1576122b0612236565b5b8235905067ffffffffffffffff8111156122ce576122cd61223b565b5b6020830191508360208202830111156122ea576122e9612240565b5b9250929050565b6000806000806000806060878903121561230e5761230d611dea565b5b600087013567ffffffffffffffff81111561232c5761232b611def565b5b61233889828a01612245565b9650965050602087013567ffffffffffffffff81111561235b5761235a611def565b5b61236789828a0161229b565b9450945050604087013567ffffffffffffffff81111561238a57612389611def565b5b61239689828a0161229b565b92509250509295509295509295565b6123ae81611e79565b81146123b957600080fd5b50565b6000813590506123cb816123a5565b92915050565b6000806000606084860312156123ea576123e9611dea565b5b60006123f8868287016123bc565b9350506020612409868287016123bc565b925050604061241a86828701611fe0565b9150509250925092565b6000806040838503121561243b5761243a611dea565b5b600061244985828601611faa565b925050602061245a85828601611faa565b9150509250929050565b7f4e487b7100000000000000000000000000000000000000000000000000000000600052602260045260246000fd5b600060028204905060018216806124ab57607f821691505b6020821081036124be576124bd612464565b5b50919050565b7f4e487b7100000000000000000000000000000000000000000000000000000000600052601160045260246000fd5b60006124fe82611fbf565b915061250983611fbf565b925082820261251781611fbf565b9150828204841483151761252e5761252d6124c4565b5b5092915050565b7f4e487b7100000000000000000000000000000000000000000000000000000000600052601260045260246000fd5b600061256f82611fbf565b915061257a83611fbf565b92508261258a57612589612535565b5b828204905092915050565b60006125a082611fbf565b91506125ab83611fbf565b92508282019050808211156125c3576125c26124c4565b5b92915050565b7f41646472657373206973206e6f742063757272656e746c7920616e2061646d6960008201527f6e00000000000000000000000000000000000000000000000000000000000000602082015250565b6000612625602183611eba565b9150612630826125c9565b604082019050919050565b6000602082019050818103600083015261265481612618565b9050919050565b7f43616e6e6f742072656d6f766520746865206c6173742061646d696e202d206960008201527f7420776f756c64206c6f636b2074686520636f6e747261637400000000000000602082015250565b60006126b7603983611eba565b91506126c28261265b565b604082019050919050565b600060208201905081810360008301526126e6816126aa565b9050919050565b60006126f882611fbf565b91506000820361270b5761270a6124c4565b5b600182039050919050565b61271f81611f81565b82525050565b600060208201905061273a6000830184612716565b92915050565b7f4e65772061646d696e206d757374206265206120746f6b656e20686f6c646572600082015250565b6000612776602083611eba565b915061278182612740565b602082019050919050565b600060208201905081810360008301526127a581612769565b9050919050565b60006127b782611fbf565b91507fffffffffffffffffffffffffffffffffffffffffffffffffffffffffffffffff82036127e9576127e86124c4565b5b600182019050919050565b7f496e707574206172726179206c656e67746873206d69736d6174636800000000600082015250565b600061282a601c83611eba565b9150612835826127f4565b602082019050919050565b600060208201905081810360008301526128598161281d565b9050919050565b7f4e487b7100000000000000000000000000000000000000000000000000000000600052603260045260246000fd5b60006060820190506128a46000830186611e85565b6128b16020830185611e85565b6128be60408301846120b5565b949350505050565b60006128d182611fbf565b91506128dc83611fbf565b92508282039050818111156128f4576128f36124c4565b5b92915050565b600060608201905061290f6000830186612716565b61291c60208301856120b5565b61292960408301846120b5565b949350505050565b60006040820190506129466000830185612716565b6129536020830184612195565b9392505050565b7f5472616e7366657273206172652064697361626c656400000000000000000000600082015250565b6000612990601683611eba565b915061299b8261295a565b602082019050919050565b600060208201905081810360008301526129bf81612983565b9050919050565b7f526563697069656e74206d75737420626520616e206578697374696e6720746f60008201527f6b656e20686f6c64657200000000000000000000000000000000000000000000602082015250565b6000612a22602a83611eba565b9150612a2d826129c6565b604082019050919050565b60006020820190508181036000830152612a5181612a15565b905091905056fea26469706673582212206a277f2e020869aa36858152ec14f0c34938371d911148508402a2399fe6440364736f6c63430008180033a2646970667358221220d3f077912b62cf7427887691442df1fc443c10a6ba34a94c3e6e6fbd488e213a64736f6c63430008180033",
  "linkReferences": {},
  "deployedLinkReferences": {}
}