{
  "_format": "hh-sol-artifact-1",
  "contractName": "TeamPoints",
  "sourceName": "contracts/TeamPoints.sol",
  "abi": [
    {
      "inputs": [
        {
          "internalType": "address",
          "name": "initialOwner",
          "type": "address"
        },
        {
          "internalType": "bool",
          "name": "_isTransferable",
          "type": "bool"
        },
        {
          "internalType": "bool",
          "name": "_isOutsideTransferAllowed",
          "type": "bool"
        },
        {
          "internalType": "uint256",
          "name": "_materialWeight",
          "type": "uint256"
        },
        {
          "internalType": "string",
          "name": "name",
          "type": "string"
        },
        {
          "internalType": "string",
          "name": "symbol",
          "type": "string"
        }
      ],
      "stateMutability": "nonpayable",
      "type": "constructor"
    },
    {
      "inputs": [],
      "name": "AccessControlBadConfirmation",
      "type": "error"
    },
    {
      "inputs": [
        {
          "internalType": "address",
          "name": "account",
          "type": "address"
        },
        {
          "internalType": "bytes32",
          "name": "neededRole",
          "type": "bytes32"
        }
      ],
      "name": "AccessControlUnauthorizedAccount",
      "type": "error"
    },
    {
      "inputs": [
        {
          "internalType": "address",
          "name": "spender",
          "type": "address"
        },
        {
          "internalType": "uint256",
          "name": "allowance",
          "type": "uint256"
        },
        {
          "internalType": "uint256",
          "name": "needed",
          "type": "uint256"
        }
      ],
      "name": "ERC20InsufficientAllowance",
      "type": "error"
    },
    {
      "inputs": [
        {
          "internalType": "address",
          "name": "sender",
          "type": "address"
        },
        {
          "internalType": "uint256",
          "name": "balance",
          "type": "uint256"
        },
        {
          "internalType": "uint256",
          "name": "needed",
          "type": "uint256"
        }
      ],
      "name": "ERC20InsufficientBalance",
      "type": "error"
    },
    {
      "inputs": [
        {
          "internalType": "address",
          "name": "approver",
          "type": "address"
        }
      ],
      "name": "ERC20InvalidApprover",
      "type": "error"
    },
    {
      "inputs": [
        {
          "internalType": "address",
          "name": "receiver",
          "type": "address"
        }
      ],
      "name": "ERC20InvalidReceiver",
      "type": "error"
    },
    {
      "inputs": [
        {
          "internalType": "address",
          "name": "sender",
          "type": "address"
        }
      ],
      "name": "ERC20InvalidSender",
      "type": "error"
    },
    {
      "inputs": [
        {
          "internalType": "address",
          "name": "spender",
          "type": "address"
        }
      ],
      "name": "ERC20InvalidSpender",
      "type": "error"
    },
    {
      "anonymous": false,
      "inputs": [
        {
          "indexed": false,
          "internalType": "address",
          "name": "newAdmin",
          "type": "address"
        }
      ],
      "name": "AdminAdded",
      "type": "event"
    },
    {
      "anonymous": false,
      "inputs": [
        {
          "indexed": false,
          "internalType": "address",
          "name": "removedAdmin",
          "type": "address"
        }
      ],
      "name": "AdminRemoved",
      "type": "event"
    },
    {
      "anonymous": false,
      "inputs": [
        {
          "indexed": true,
          "internalType": "address",
          "name": "owner",
          "type": "address"
        },
        {
          "indexed": true,
          "internalType": "address",
          "name": "spender",
          "type": "address"
        },
        {
          "indexed": false,
          "internalType": "uint256",
          "name": "value",
          "type": "uint256"
        }
      ],
      "name": "Approval",
      "type": "event"
    },
    {
      "anonymous": false,
      "inputs": [],
      "name": "ManualAllocationCompleted",
      "type": "event"
    },
    {
      "anonymous": false,
      "inputs": [
        {
          "indexed": true,
          "internalType": "bytes32",
          "name": "role",
          "type": "bytes32"
        },
        {
          "indexed": true,
          "internalType": "bytes32",
          "name": "previousAdminRole",
          "type": "bytes32"
        },
        {
          "indexed": true,
          "internalType": "bytes32",
          "name": "newAdminRole",
          "type": "bytes32"
        }
      ],
      "name": "RoleAdminChanged",
      "type": "event"
    },
    {
      "anonymous": false,
      "inputs": [
        {
          "indexed": true,
          "internalType": "bytes32",
          "name": "role",
          "type": "bytes32"
        },
        {
          "indexed": true,
          "internalType": "address",
          "name": "account",
          "type": "address"
        },
        {
          "indexed": true,
          "internalType": "address",
          "name": "sender",
          "type": "address"
        }
      ],
      "name": "RoleGranted",
      "type": "event"
    },
    {
      "anonymous": false,
      "inputs": [
        {
          "indexed": true,
          "internalType": "bytes32",
          "name": "role",
          "type": "bytes32"
        },
        {
          "indexed": true,
          "internalType": "address",
          "name": "account",
          "type": "address"
        },
        {
          "indexed": true,
          "internalType": "address",
          "name": "sender",
          "type": "address"
        }
      ],
      "name": "RoleRevoked",
      "type": "event"
    },
    {
      "anonymous": false,
      "inputs": [
        {
          "indexed": false,
          "internalType": "bool",
          "name": "isTransferable",
          "type": "bool"
        },
        {
          "indexed": false,
          "internalType": "bool",
          "name": "isOutsideTransferAllowed",
          "type": "bool"
        },
        {
          "indexed": false,
          "internalType": "uint256",
          "name": "materialWeight",
          "type": "uint256"
        }
      ],
      "name": "SettingsUpdated",
      "type": "event"
    },
    {
      "anonymous": false,
      "inputs": [
        {
          "indexed": true,
          "internalType": "address",
          "name": "from",
          "type": "address"
        },
        {
          "indexed": true,
          "internalType": "address",
          "name": "to",
          "type": "address"
        },
        {
          "indexed": false,
          "internalType": "uint256",
          "name": "value",
          "type": "uint256"
        }
      ],
      "name": "Transfer",
      "type": "event"
    },
    {
      "inputs": [],
      "name": "ADMIN_ROLE",
      "outputs": [
        {
          "internalType": "bytes32",
          "name": "",
          "type": "bytes32"
        }
      ],
      "stateMutability": "view",
      "type": "function"
    },
    {
      "inputs": [],
      "name": "DEFAULT_ADMIN_ROLE",
      "outputs": [
        {
          "internalType": "bytes32",
          "name": "",
          "type": "bytes32"
        }
      ],
      "stateMutability": "view",
      "type": "function"
    },
    {
      "inputs": [
        {
          "internalType": "address",
          "name": "newAdmin",
          "type": "address"
        }
      ],
      "name": "addAdmin",
      "outputs": [],
      "stateMutability": "nonpayable",
      "type": "function"
    },
    {
      "inputs": [
        {
          "internalType": "address",
          "name": "owner",
          "type": "address"
        },
        {
          "internalType": "address",
          "name": "spender",
          "type": "address"
        }
      ],
      "name": "allowance",
      "outputs": [
        {
          "internalType": "uint256",
          "name": "",
          "type": "uint256"
        }
      ],
      "stateMutability": "view",
      "type": "function"
    },
    {
      "inputs": [
        {
          "internalType": "address",
          "name": "spender",
          "type": "address"
        },
        {
          "internalType": "uint256",
          "name": "value",
          "type": "uint256"
        }
      ],
      "name": "approve",
      "outputs": [
        {
          "internalType": "bool",
          "name": "",
          "type": "bool"
        }
      ],
      "stateMutability": "nonpayable",
      "type": "function"
    },
    {
      "inputs": [
        {
          "internalType": "address",
          "name": "account",
          "type": "address"
        }
      ],
      "name": "balanceOf",
      "outputs": [
        {
          "internalType": "uint256",
          "name": "",
          "type": "uint256"
        }
      ],
      "stateMutability": "view",
      "type": "function"
    },
    {
      "inputs": [
        {
          "internalType": "address[]",
          "name": "recipients",
          "type": "address[]"
        },
        {
          "internalType": "uint256[]",
          "name": "materialContributions",
          "type": "uint256[]"
        },
        {
          "internalType": "uint256[]",
          "name": "timeContributions",
          "type": "uint256[]"
        }
      ],
      "name": "batchMint",
      "outputs": [],
      "stateMutability": "nonpayable",
      "type": "function"
    },
    {
      "inputs": [],
      "name": "decimals",
      "outputs": [
        {
          "internalType": "uint8",
          "name": "",
          "type": "uint8"
        }
      ],
      "stateMutability": "view",
      "type": "function"
    },
    {
      "inputs": [
        {
          "internalType": "bytes32",
          "name": "role",
          "type": "bytes32"
        }
      ],
      "name": "getRoleAdmin",
      "outputs": [
        {
          "internalType": "bytes32",
          "name": "",
          "type": "bytes32"
        }
      ],
      "stateMutability": "view",
      "type": "function"
    },
    {
      "inputs": [
        {
          "internalType": "address",
          "name": "user",
          "type": "address"
        }
      ],
      "name": "getTimeWeight",
      "outputs": [
        {
          "internalType": "uint256",
          "name": "",
          "type": "uint256"
        }
      ],
      "stateMutability": "view",
      "type": "function"
    },
    {
      "inputs": [
        {
          "internalType": "bytes32",
          "name": "role",
          "type": "bytes32"
        },
        {
          "internalType": "address",
          "name": "account",
          "type": "address"
        }
      ],
      "name": "grantRole",
      "outputs": [],
      "stateMutability": "nonpayable",
      "type": "function"
    },
    {
      "inputs": [
        {
          "internalType": "bytes32",
          "name": "role",
          "type": "bytes32"
        },
        {
          "internalType": "address",
          "name": "account",
          "type": "address"
        }
      ],
      "name": "hasRole",
      "outputs": [
        {
          "internalType": "bool",
          "name": "",
          "type": "bool"
        }
      ],
      "stateMutability": "view",
      "type": "function"
    },
    {
      "inputs": [
        {
          "internalType": "address",
          "name": "account",
          "type": "address"
        }
      ],
      "name": "isAdmin",
      "outputs": [
        {
          "internalType": "bool",
          "name": "",
          "type": "bool"
        }
      ],
      "stateMutability": "view",
      "type": "function"
    },
    {
      "inputs": [],
      "name": "isOutsideTransferAllowed",
      "outputs": [
        {
          "internalType": "bool",
          "name": "",
          "type": "bool"
        }
      ],
      "stateMutability": "view",
      "type": "function"
    },
    {
      "inputs": [],
      "name": "isTransferable",
      "outputs": [
        {
          "internalType": "bool",
          "name": "",
          "type": "bool"
        }
      ],
      "stateMutability": "view",
      "type": "function"
    },
    {
      "inputs": [
        {
          "internalType": "address[]",
          "name": "recipients",
          "type": "address[]"
        },
        {
          "internalType": "uint256[]",
          "name": "amounts",
          "type": "uint256[]"
        }
      ],
      "name": "manualAllocation",
      "outputs": [],
      "stateMutability": "nonpayable",
      "type": "function"
    },
    {
      "inputs": [],
      "name": "materialContributionWeight",
      "outputs": [
        {
          "internalType": "uint256",
          "name": "",
          "type": "uint256"
        }
      ],
      "stateMutability": "view",
      "type": "function"
    },
    {
      "inputs": [
        {
          "internalType": "address",
          "name": "to",
          "type": "address"
        },
        {
          "internalType": "uint256",
          "name": "materialContribution",
          "type": "uint256"
        },
        {
          "internalType": "uint256",
          "name": "timeContribution",
          "type": "uint256"
        }
      ],
      "name": "mint",
      "outputs": [],
      "stateMutability": "nonpayable",
      "type": "function"
    },
    {
      "inputs": [],
      "name": "name",
      "outputs": [
        {
          "internalType": "string",
          "name": "",
          "type": "string"
        }
      ],
      "stateMutability": "view",
      "type": "function"
    },
    {
      "inputs": [
        {
          "internalType": "address",
          "name": "toRemove",
          "type": "address"
        }
      ],
      "name": "removeAdmin",
      "outputs": [],
      "stateMutability": "nonpayable",
      "type": "function"
    },
    {
      "inputs": [
        {
          "internalType": "bytes32",
          "name": "role",
          "type": "bytes32"
        },
        {
          "internalType": "address",
          "name": "callerConfirmation",
          "type": "address"
        }
      ],
      "name": "renounceRole",
      "outputs": [],
      "stateMutability": "nonpayable",
      "type": "function"
    },
    {
      "inputs": [
        {
          "internalType": "bytes32",
          "name": "role",
          "type": "bytes32"
        },
        {
          "internalType": "address",
          "name": "account",
          "type": "address"
        }
      ],
      "name": "revokeRole",
      "outputs": [],
      "stateMutability": "nonpayable",
      "type": "function"
    },
    {
      "inputs": [
        {
          "internalType": "bytes4",
          "name": "interfaceId",
          "type": "bytes4"
        }
      ],
      "name": "supportsInterface",
      "outputs": [
        {
          "internalType": "bool",
          "name": "",
          "type": "bool"
        }
      ],
      "stateMutability": "view",
      "type": "function"
    },
    {
      "inputs": [],
      "name": "symbol",
      "outputs": [
        {
          "internalType": "string",
          "name": "",
          "type": "string"
        }
      ],
      "stateMutability": "view",
      "type": "function"
    },
    {
      "inputs": [],
      "name": "totalSupply",
      "outputs": [
        {
          "internalType": "uint256",
          "name": "",
          "type": "uint256"
        }
      ],
      "stateMutability": "view",
      "type": "function"
    },
    {
      "inputs": [
        {
          "internalType": "address",
          "name": "to",
          "type": "address"
        },
        {
          "internalType": "uint256",
          "name": "value",
          "type": "uint256"
        }
      ],
      "name": "transfer",
      "outputs": [
        {
          "internalType": "bool",
          "name": "",
          "type": "bool"
        }
      ],
      "stateMutability": "nonpayable",
      "type": "function"
    },
    {
      "inputs": [
        {
          "internalType": "address",
          "name": "from",
          "type": "address"
        },
        {
          "internalType": "address",
          "name": "to",
          "type": "address"
        },
        {
          "internalType": "uint256",
          "name": "value",
          "type": "uint256"
        }
      ],
      "name": "transferFrom",
      "outputs": [
        {
          "internalType": "bool",
          "name": "",
          "type": "bool"
        }
      ],
      "stateMutability": "nonpayable",
      "type": "function"
    },
    {
      "inputs": [
        {
          "internalType": "bool",
          "name": "_isTransferable",
          "type": "bool"
        },
        {
          "internalType": "bool",
          "name": "_isOutsideTransferAllowed",
          "type": "bool"
        },
        {
          "internalType": "uint256",
          "name": "_materialWeight",
          "type": "uint256"
        }
      ],
      "name": "updateSettings",
      "outputs": [],
      "stateMutability": "nonpayable",
      "type": "function"
    }
  ],
  "bytecode": "0x60806040523480156200001157600080fd5b50604051620036d9380380620036d983398181016040528101906200003791906200057e565b818181600390816200004a919062000899565b5080600490816200005c919062000899565b505050620000917fa49807205ce4d355092ef5a8a18f56e8913cf4a201fbe287825b095693c21775806200011360201b60201c565b620000c37fa49807205ce4d355092ef5a8a18f56e8913cf4a201fbe287825b095693c21775876200017760201b60201c565b50600160088190555084600660006101000a81548160ff02191690831515021790555083600660016101000a81548160ff0219169083151502179055508260078190555050505050505062000980565b600062000126836200027b60201b60201c565b90508160056000858152602001908152602001600020600101819055508181847fbd79b86ffe0ab8e8776151514217cd7cacd52c909f66475c3af44e129f0b00ff60405160405180910390a4505050565b60006200018b83836200029b60201b60201c565b620002705760016005600085815260200190815260200160002060000160008473ffffffffffffffffffffffffffffffffffffffff1673ffffffffffffffffffffffffffffffffffffffff16815260200190815260200160002060006101000a81548160ff0219169083151502179055506200020c6200030660201b60201c565b73ffffffffffffffffffffffffffffffffffffffff168273ffffffffffffffffffffffffffffffffffffffff16847f2f8788117e7eff1d82e926ec794901d17c78024a50270940304540a733656f0d60405160405180910390a46001905062000275565b600090505b92915050565b600060056000838152602001908152602001600020600101549050919050565b60006005600084815260200190815260200160002060000160008373ffffffffffffffffffffffffffffffffffffffff1673ffffffffffffffffffffffffffffffffffffffff16815260200190815260200160002060009054906101000a900460ff16905092915050565b600033905090565b6000604051905090565b600080fd5b600080fd5b600073ffffffffffffffffffffffffffffffffffffffff82169050919050565b60006200034f8262000322565b9050919050565b620003618162000342565b81146200036d57600080fd5b50565b600081519050620003818162000356565b92915050565b60008115159050919050565b6200039e8162000387565b8114620003aa57600080fd5b50565b600081519050620003be8162000393565b92915050565b6000819050919050565b620003d981620003c4565b8114620003e557600080fd5b50565b600081519050620003f981620003ce565b92915050565b600080fd5b600080fd5b6000601f19601f8301169050919050565b7f4e487b7100000000000000000000000000000000000000000000000000000000600052604160045260246000fd5b620004548262000409565b810181811067ffffffffffffffff821117156200047657620004756200041a565b5b80604052505050565b60006200048b6200030e565b905062000499828262000449565b919050565b600067ffffffffffffffff821115620004bc57620004bb6200041a565b5b620004c78262000409565b9050602081019050919050565b60005b83811015620004f4578082015181840152602081019050620004d7565b60008484015250505050565b60006200051762000511846200049e565b6200047f565b90508281526020810184848401111562000536576200053562000404565b5b62000543848285620004d4565b509392505050565b600082601f830112620005635762000562620003ff565b5b81516200057584826020860162000500565b91505092915050565b60008060008060008060c087890312156200059e576200059d62000318565b5b6000620005ae89828a0162000370565b9650506020620005c189828a01620003ad565b9550506040620005d489828a01620003ad565b9450506060620005e789828a01620003e8565b935050608087015167ffffffffffffffff8111156200060b576200060a6200031d565b5b6200061989828a016200054b565b92505060a087015167ffffffffffffffff8111156200063d576200063c6200031d565b5b6200064b89828a016200054b565b9150509295509295509295565b600081519050919050565b7f4e487b7100000000000000000000000000000000000000000000000000000000600052602260045260246000fd5b60006002820490506001821680620006ab57607f821691505b602082108103620006c157620006c062000663565b5b50919050565b60008190508160005260206000209050919050565b60006020601f8301049050919050565b600082821b905092915050565b6000600883026200072b7fffffffffffffffffffffffffffffffffffffffffffffffffffffffffffffffff82620006ec565b620007378683620006ec565b95508019841693508086168417925050509392505050565b6000819050919050565b60006200077a620007746200076e84620003c4565b6200074f565b620003c4565b9050919050565b6000819050919050565b620007968362000759565b620007ae620007a58262000781565b848454620006f9565b825550505050565b600090565b620007c5620007b6565b620007d28184846200078b565b505050565b5b81811015620007fa57620007ee600082620007bb565b600181019050620007d8565b5050565b601f82111562000849576200081381620006c7565b6200081e84620006dc565b810160208510156200082e578190505b620008466200083d85620006dc565b830182620007d7565b50505b505050565b600082821c905092915050565b60006200086e600019846008026200084e565b1980831691505092915050565b60006200088983836200085b565b9150826002028217905092915050565b620008a48262000658565b67ffffffffffffffff811115620008c057620008bf6200041a565b5b620008cc825462000692565b620008d9828285620007fe565b600060209050601f831160018114620009115760008415620008fc578287015190505b6200090885826200087b565b86555062000978565b601f1984166200092186620006c7565b60005b828110156200094b5784890151825560018201915060208501945060208101905062000924565b868310156200096b578489015162000967601f8916826200085b565b8355505b6001600288020188555050505b505050505050565b612d4980620009906000396000f3fe608060405234801561001057600080fd5b50600436106101c45760003560e01c806370480275116100f9578063a92b391c11610097578063d559f05b11610071578063d559f05b1461051b578063daa22ce914610537578063dd62ed3e14610553578063e84e581d14610583576101c4565b8063a92b391c146104c5578063d3fe516e146104e1578063d547741f146104ff576101c4565b806391d14854116100d357806391d148541461042957806395d89b4114610459578063a217fddf14610477578063a9059cbb14610495576101c4565b806370480275146103bf57806370a08231146103db57806375b238fc1461040b576101c4565b806323b872dd116101665780632f2ff15d116101405780632f2ff15d1461034b578063313ce5671461036757806336568abe1461038557806367a4c8fe146103a1576101c4565b806323b872dd146102bb578063248a9ca3146102eb57806324d7806c1461031b576101c4565b8063156e29f6116101a2578063156e29f6146102475780631785f53c1461026357806318160ddd1461027f5780632121dc751461029d576101c4565b806301ffc9a7146101c957806306fdde03146101f9578063095ea7b314610217575b600080fd5b6101e360048036038101906101de9190612086565b6105b3565b6040516101f091906120ce565b60405180910390f35b61020161062d565b60405161020e9190612179565b60405180910390f35b610231600480360381019061022c919061222f565b6106bf565b60405161023e91906120ce565b60405180910390f35b610261600480360381019061025c919061226f565b6106e2565b005b61027d600480360381019061027891906122c2565b6108a3565b005b6102876109f9565b60405161029491906122fe565b60405180910390f35b6102a5610a03565b6040516102b291906120ce565b60405180910390f35b6102d560048036038101906102d09190612319565b610a16565b6040516102e291906120ce565b60405180910390f35b610305600480360381019061030091906123a2565b610a45565b60405161031291906123de565b60405180910390f35b610335600480360381019061033091906122c2565b610a65565b60405161034291906120ce565b60405180910390f35b610365600480360381019061036091906123f9565b610a98565b005b61036f610aba565b60405161037c9190612455565b60405180910390f35b61039f600480360381019061039a91906123f9565b610ac3565b005b6103a9610b3e565b6040516103b691906120ce565b60405180910390f35b6103d960048036038101906103d491906122c2565b610b51565b005b6103f560048036038101906103f091906122c2565b610cb4565b60405161040291906122fe565b60405180910390f35b610413610cfc565b60405161042091906123de565b60405180910390f35b610443600480360381019061043e91906123f9565b610d20565b60405161045091906120ce565b60405180910390f35b610461610d8b565b60405161046e9190612179565b60405180910390f35b61047f610e1d565b60405161048c91906123de565b60405180910390f35b6104af60048036038101906104aa919061222f565b610e24565b6040516104bc91906120ce565b60405180910390f35b6104df60048036038101906104da919061252b565b610e47565b005b6104e961104a565b6040516104f691906122fe565b60405180910390f35b610519600480360381019061051491906123f9565b611050565b005b610535600480360381019061053091906125ac565b611072565b005b610551600480360381019061054c919061268c565b6113c7565b005b61056d600480360381019061056891906126df565b61146d565b60405161057a91906122fe565b60405180910390f35b61059d600480360381019061059891906122c2565b6114f4565b6040516105aa91906122fe565b60405180910390f35b60007f7965db0b000000000000000000000000000000000000000000000000000000007bffffffffffffffffffffffffffffffffffffffffffffffffffffffff1916827bffffffffffffffffffffffffffffffffffffffffffffffffffffffff191614806106265750610625826115de565b5b9050919050565b60606003805461063c9061274e565b80601f01602080910402602001604051908101604052809291908181526020018280546106689061274e565b80156106b55780601f1061068a576101008083540402835291602001916106b5565b820191906000526020600020905b81548152906001019060200180831161069857829003601f168201915b5050505050905090565b6000806106ca611648565b90506106d7818585611650565b600191505092915050565b7fa49807205ce4d355092ef5a8a18f56e8913cf4a201fbe287825b095693c2177561070c81611662565b6000600a60008673ffffffffffffffffffffffffffffffffffffffff1673ffffffffffffffffffffffffffffffffffffffff16815260200190815260200160002054036107985742600a60008673ffffffffffffffffffffffffffffffffffffffff1673ffffffffffffffffffffffffffffffffffffffff168152602001908152602001600020819055505b60006107a3856114f4565b905060006103e882856107b691906127ae565b6107c0919061281f565b6103e8600754876107d191906127ae565b6107db919061281f565b6107e59190612850565b90506107f18682611676565b600960008773ffffffffffffffffffffffffffffffffffffffff1673ffffffffffffffffffffffffffffffffffffffff16815260200190815260200160002060009054906101000a900460ff1661089b576001600960008873ffffffffffffffffffffffffffffffffffffffff1673ffffffffffffffffffffffffffffffffffffffff16815260200190815260200160002060006101000a81548160ff0219169083151502179055505b505050505050565b7fa49807205ce4d355092ef5a8a18f56e8913cf4a201fbe287825b095693c217756108cd81611662565b6108f77fa49807205ce4d355092ef5a8a18f56e8913cf4a201fbe287825b095693c2177583610d20565b610936576040517f08c379a000000000000000000000000000000000000000000000000000000000815260040161092d906128f6565b60405180910390fd5b60016008541161097b576040517f08c379a000000000000000000000000000000000000000000000000000000000815260040161097290612988565b60405180910390fd5b6109a57fa49807205ce4d355092ef5a8a18f56e8913cf4a201fbe287825b095693c21775836116f8565b50600860008154809291906109b9906129a8565b91905055507fa3b62bc36326052d97ea62d63c3d60308ed4c3ea8ac079dd8499f1e9c4f80c0f826040516109ed91906129e0565b60405180910390a15050565b6000600254905090565b600660009054906101000a900460ff1681565b600080610a21611648565b9050610a2e8582856117eb565b610a3985858561187f565b60019150509392505050565b600060056000838152602001908152602001600020600101549050919050565b6000610a917fa49807205ce4d355092ef5a8a18f56e8913cf4a201fbe287825b095693c2177583610d20565b9050919050565b610aa182610a45565b610aaa81611662565b610ab48383611973565b50505050565b60006012905090565b610acb611648565b73ffffffffffffffffffffffffffffffffffffffff168173ffffffffffffffffffffffffffffffffffffffff1614610b2f576040517f6697b23200000000000000000000000000000000000000000000000000000000815260040160405180910390fd5b610b3982826116f8565b505050565b600660019054906101000a900460ff1681565b7fa49807205ce4d355092ef5a8a18f56e8913cf4a201fbe287825b095693c21775610b7b81611662565b600960008373ffffffffffffffffffffffffffffffffffffffff1673ffffffffffffffffffffffffffffffffffffffff16815260200190815260200160002060009054906101000a900460ff16610c07576040517f08c379a0000000000000000000000000000000000000000000000000000000008152600401610bfe90612a47565b60405180910390fd5b610c317fa49807205ce4d355092ef5a8a18f56e8913cf4a201fbe287825b095693c2177583610d20565b610cb057610c5f7fa49807205ce4d355092ef5a8a18f56e8913cf4a201fbe287825b095693c2177583611973565b5060086000815480929190610c7390612a67565b91905055507f44d6d25963f097ad14f29f06854a01f575648a1ef82f30e562ccd3889717e33982604051610ca791906129e0565b60405180910390a15b5050565b60008060008373ffffffffffffffffffffffffffffffffffffffff1673ffffffffffffffffffffffffffffffffffffffff168152602001908152602001600020549050919050565b7fa49807205ce4d355092ef5a8a18f56e8913cf4a201fbe287825b095693c2177581565b60006005600084815260200190815260200160002060000160008373ffffffffffffffffffffffffffffffffffffffff1673ffffffffffffffffffffffffffffffffffffffff16815260200190815260200160002060009054906101000a900460ff16905092915050565b606060048054610d9a9061274e565b80601f0160208091040260200160405190810160405280929190818152602001828054610dc69061274e565b8015610e135780601f10610de857610100808354040283529160200191610e13565b820191906000526020600020905b815481529060010190602001808311610df657829003601f168201915b5050505050905090565b6000801b81565b600080610e2f611648565b9050610e3c81858561187f565b600191505092915050565b7fa49807205ce4d355092ef5a8a18f56e8913cf4a201fbe287825b095693c21775610e7181611662565b828290508585905014610eb9576040517f08c379a0000000000000000000000000000000000000000000000000000000008152600401610eb090612afb565b60405180910390fd5b60005b8585905081101561101657610f11868683818110610edd57610edc612b1b565b5b9050602002016020810190610ef291906122c2565b858584818110610f0557610f04612b1b565b5b90506020020135611676565b60096000878784818110610f2857610f27612b1b565b5b9050602002016020810190610f3d91906122c2565b73ffffffffffffffffffffffffffffffffffffffff1673ffffffffffffffffffffffffffffffffffffffff16815260200190815260200160002060009054906101000a900460ff1661100957600160096000888885818110610fa257610fa1612b1b565b5b9050602002016020810190610fb791906122c2565b73ffffffffffffffffffffffffffffffffffffffff1673ffffffffffffffffffffffffffffffffffffffff16815260200190815260200160002060006101000a81548160ff0219169083151502179055505b8080600101915050610ebc565b507f69bc07a97070d6e2570eb0693f430632a337e4e01dbeb1fd0048b5ca5303788460405160405180910390a15050505050565b60075481565b61105982610a45565b61106281611662565b61106c83836116f8565b50505050565b7fa49807205ce4d355092ef5a8a18f56e8913cf4a201fbe287825b095693c2177561109c81611662565b84849050878790501480156110b657508282905087879050145b6110f5576040517f08c379a00000000000000000000000000000000000000000000000000000000081526004016110ec90612afb565b60405180910390fd5b60005b878790508110156113bd576000600a60008a8a8581811061111c5761111b612b1b565b5b905060200201602081019061113191906122c2565b73ffffffffffffffffffffffffffffffffffffffff1673ffffffffffffffffffffffffffffffffffffffff16815260200190815260200160002054036111dd5742600a60008a8a8581811061118957611188612b1b565b5b905060200201602081019061119e91906122c2565b73ffffffffffffffffffffffffffffffffffffffff1673ffffffffffffffffffffffffffffffffffffffff168152602001908152602001600020819055505b600061120f8989848181106111f5576111f4612b1b565b5b905060200201602081019061120a91906122c2565b6114f4565b905060006103e88287878681811061122a57611229612b1b565b5b9050602002013561123b91906127ae565b611245919061281f565b6103e86007548a8a8781811061125e5761125d612b1b565b5b9050602002013561126f91906127ae565b611279919061281f565b6112839190612850565b90506112b68a8a8581811061129b5761129a612b1b565b5b90506020020160208101906112b091906122c2565b82611676565b600960008b8b868181106112cd576112cc612b1b565b5b90506020020160208101906112e291906122c2565b73ffffffffffffffffffffffffffffffffffffffff1673ffffffffffffffffffffffffffffffffffffffff16815260200190815260200160002060009054906101000a900460ff166113ae576001600960008c8c8781811061134757611346612b1b565b5b905060200201602081019061135c91906122c2565b73ffffffffffffffffffffffffffffffffffffffff1673ffffffffffffffffffffffffffffffffffffffff16815260200190815260200160002060006101000a81548160ff0219169083151502179055505b505080806001019150506110f8565b5050505050505050565b7fa49807205ce4d355092ef5a8a18f56e8913cf4a201fbe287825b095693c217756113f181611662565b83600660006101000a81548160ff02191690831515021790555082600660016101000a81548160ff021916908315150217905550816007819055507f1921409135eaf8e2b039b227d66d8ead9edc08d746d0f3a2c133c99d8af900d084848460405161145f93929190612b4a565b60405180910390a150505050565b6000600160008473ffffffffffffffffffffffffffffffffffffffff1673ffffffffffffffffffffffffffffffffffffffff16815260200190815260200160002060008373ffffffffffffffffffffffffffffffffffffffff1673ffffffffffffffffffffffffffffffffffffffff16815260200190815260200160002054905092915050565b600080600a60008473ffffffffffffffffffffffffffffffffffffffff1673ffffffffffffffffffffffffffffffffffffffff1681526020019081526020016000205403611546576107d090506115d9565b600062ed4e00600a60008573ffffffffffffffffffffffffffffffffffffffff1673ffffffffffffffffffffffffffffffffffffffff16815260200190815260200160002054426115979190612b81565b6115a1919061281f565b90506000607d826115b291906127ae565b6107d06115bf9190612850565b9050610fa081116115d057806115d4565b610fa05b925050505b919050565b60007f01ffc9a7000000000000000000000000000000000000000000000000000000007bffffffffffffffffffffffffffffffffffffffffffffffffffffffff1916827bffffffffffffffffffffffffffffffffffffffffffffffffffffffff1916149050919050565b600033905090565b61165d8383836001611a65565b505050565b6116738161166e611648565b611c3c565b50565b600073ffffffffffffffffffffffffffffffffffffffff168273ffffffffffffffffffffffffffffffffffffffff16036116e85760006040517fec442f050000000000000000000000000000000000000000000000000000000081526004016116df91906129e0565b60405180910390fd5b6116f460008383611c8d565b5050565b60006117048383610d20565b156117e05760006005600085815260200190815260200160002060000160008473ffffffffffffffffffffffffffffffffffffffff1673ffffffffffffffffffffffffffffffffffffffff16815260200190815260200160002060006101000a81548160ff02191690831515021790555061177d611648565b73ffffffffffffffffffffffffffffffffffffffff168273ffffffffffffffffffffffffffffffffffffffff16847ff6391f5c32d9c69d2a47ea670b442974b53935d1edc7fd64eb21e047a839171b60405160405180910390a4600190506117e5565b600090505b92915050565b60006117f7848461146d565b90507fffffffffffffffffffffffffffffffffffffffffffffffffffffffffffffffff81146118795781811015611869578281836040517ffb8f41b200000000000000000000000000000000000000000000000000000000815260040161186093929190612bb5565b60405180910390fd5b61187884848484036000611a65565b5b50505050565b600073ffffffffffffffffffffffffffffffffffffffff168373ffffffffffffffffffffffffffffffffffffffff16036118f15760006040517f96c6fd1e0000000000000000000000000000000000000000000000000000000081526004016118e891906129e0565b60405180910390fd5b600073ffffffffffffffffffffffffffffffffffffffff168273ffffffffffffffffffffffffffffffffffffffff16036119635760006040517fec442f0500000000000000000000000000000000000000000000000000000000815260040161195a91906129e0565b60405180910390fd5b61196e838383611c8d565b505050565b600061197f8383610d20565b611a5a5760016005600085815260200190815260200160002060000160008473ffffffffffffffffffffffffffffffffffffffff1673ffffffffffffffffffffffffffffffffffffffff16815260200190815260200160002060006101000a81548160ff0219169083151502179055506119f7611648565b73ffffffffffffffffffffffffffffffffffffffff168273ffffffffffffffffffffffffffffffffffffffff16847f2f8788117e7eff1d82e926ec794901d17c78024a50270940304540a733656f0d60405160405180910390a460019050611a5f565b600090505b92915050565b600073ffffffffffffffffffffffffffffffffffffffff168473ffffffffffffffffffffffffffffffffffffffff1603611ad75760006040517fe602df05000000000000000000000000000000000000000000000000000000008152600401611ace91906129e0565b60405180910390fd5b600073ffffffffffffffffffffffffffffffffffffffff168373ffffffffffffffffffffffffffffffffffffffff1603611b495760006040517f94280d62000000000000000000000000000000000000000000000000000000008152600401611b4091906129e0565b60405180910390fd5b81600160008673ffffffffffffffffffffffffffffffffffffffff1673ffffffffffffffffffffffffffffffffffffffff16815260200190815260200160002060008573ffffffffffffffffffffffffffffffffffffffff1673ffffffffffffffffffffffffffffffffffffffff168152602001908152602001600020819055508015611c36578273ffffffffffffffffffffffffffffffffffffffff168473ffffffffffffffffffffffffffffffffffffffff167f8c5be1e5ebec7d5bd14f71427d1e84f3dd0314c0f7b2291e5b200ac8c7c3b92584604051611c2d91906122fe565b60405180910390a35b50505050565b611c468282610d20565b611c895780826040517fe2517d3f000000000000000000000000000000000000000000000000000000008152600401611c80929190612bec565b60405180910390fd5b5050565b600660009054906101000a900460ff1680611cd45750600073ffffffffffffffffffffffffffffffffffffffff168373ffffffffffffffffffffffffffffffffffffffff16145b611d13576040517f08c379a0000000000000000000000000000000000000000000000000000000008152600401611d0a90612c61565b60405180910390fd5b600660019054906101000a900460ff16158015611d5d5750600073ffffffffffffffffffffffffffffffffffffffff168373ffffffffffffffffffffffffffffffffffffffff1614155b15611def57600960008373ffffffffffffffffffffffffffffffffffffffff1673ffffffffffffffffffffffffffffffffffffffff16815260200190815260200160002060009054906101000a900460ff16611dee576040517f08c379a0000000000000000000000000000000000000000000000000000000008152600401611de590612cf3565b60405180910390fd5b5b611dfa838383611dff565b505050565b600073ffffffffffffffffffffffffffffffffffffffff168373ffffffffffffffffffffffffffffffffffffffff1603611e51578060026000828254611e459190612850565b92505081905550611f24565b60008060008573ffffffffffffffffffffffffffffffffffffffff1673ffffffffffffffffffffffffffffffffffffffff16815260200190815260200160002054905081811015611edd578381836040517fe450d38c000000000000000000000000000000000000000000000000000000008152600401611ed493929190612bb5565b60405180910390fd5b8181036000808673ffffffffffffffffffffffffffffffffffffffff1673ffffffffffffffffffffffffffffffffffffffff16815260200190815260200160002081905550505b600073ffffffffffffffffffffffffffffffffffffffff168273ffffffffffffffffffffffffffffffffffffffff1603611f6d5780600260008282540392505081905550611fba565b806000808473ffffffffffffffffffffffffffffffffffffffff1673ffffffffffffffffffffffffffffffffffffffff168152602001908152602001600020600082825401925050819055505b8173ffffffffffffffffffffffffffffffffffffffff168373ffffffffffffffffffffffffffffffffffffffff167fddf252ad1be2c89b69c2b068fc378daa952ba7f163c4a11628f55a4df523b3ef8360405161201791906122fe565b60405180910390a3505050565b600080fd5b600080fd5b60007fffffffff0000000000000000000000000000000000000000000000000000000082169050919050565b6120638161202e565b811461206e57600080fd5b50565b6000813590506120808161205a565b92915050565b60006020828403121561209c5761209b612024565b5b60006120aa84828501612071565b91505092915050565b60008115159050919050565b6120c8816120b3565b82525050565b60006020820190506120e360008301846120bf565b92915050565b600081519050919050565b600082825260208201905092915050565b60005b83811015612123578082015181840152602081019050612108565b60008484015250505050565b6000601f19601f8301169050919050565b600061214b826120e9565b61215581856120f4565b9350612165818560208601612105565b61216e8161212f565b840191505092915050565b600060208201905081810360008301526121938184612140565b905092915050565b600073ffffffffffffffffffffffffffffffffffffffff82169050919050565b60006121c68261219b565b9050919050565b6121d6816121bb565b81146121e157600080fd5b50565b6000813590506121f3816121cd565b92915050565b6000819050919050565b61220c816121f9565b811461221757600080fd5b50565b60008135905061222981612203565b92915050565b6000806040838503121561224657612245612024565b5b6000612254858286016121e4565b92505060206122658582860161221a565b9150509250929050565b60008060006060848603121561228857612287612024565b5b6000612296868287016121e4565b93505060206122a78682870161221a565b92505060406122b88682870161221a565b9150509250925092565b6000602082840312156122d8576122d7612024565b5b60006122e6848285016121e4565b91505092915050565b6122f8816121f9565b82525050565b600060208201905061231360008301846122ef565b92915050565b60008060006060848603121561233257612331612024565b5b6000612340868287016121e4565b9350506020612351868287016121e4565b92505060406123628682870161221a565b9150509250925092565b6000819050919050565b61237f8161236c565b811461238a57600080fd5b50565b60008135905061239c81612376565b92915050565b6000602082840312156123b8576123b7612024565b5b60006123c68482850161238d565b91505092915050565b6123d88161236c565b82525050565b60006020820190506123f360008301846123cf565b92915050565b600080604083850312156124105761240f612024565b5b600061241e8582860161238d565b925050602061242f858286016121e4565b9150509250929050565b600060ff82169050919050565b61244f81612439565b82525050565b600060208201905061246a6000830184612446565b92915050565b600080fd5b600080fd5b600080fd5b60008083601f84011261249557612494612470565b5b8235905067ffffffffffffffff8111156124b2576124b1612475565b5b6020830191508360208202830111156124ce576124cd61247a565b5b9250929050565b60008083601f8401126124eb576124ea612470565b5b8235905067ffffffffffffffff81111561250857612507612475565b5b6020830191508360208202830111156125245761252361247a565b5b9250929050565b6000806000806040858703121561254557612544612024565b5b600085013567ffffffffffffffff81111561256357612562612029565b5b61256f8782880161247f565b9450945050602085013567ffffffffffffffff81111561259257612591612029565b5b61259e878288016124d5565b925092505092959194509250565b600080600080600080606087890312156125c9576125c8612024565b5b600087013567ffffffffffffffff8111156125e7576125e6612029565b5b6125f389828a0161247f565b9650965050602087013567ffffffffffffffff81111561261657612615612029565b5b61262289828a016124d5565b9450945050604087013567ffffffffffffffff81111561264557612644612029565b5b61265189828a016124d5565b92509250509295509295509295565b612669816120b3565b811461267457600080fd5b50565b60008135905061268681612660565b92915050565b6000806000606084860312156126a5576126a4612024565b5b60006126b386828701612677565b93505060206126c486828701612677565b92505060406126d58682870161221a565b9150509250925092565b600080604083850312156126f6576126f5612024565b5b6000612704858286016121e4565b9250506020612715858286016121e4565b9150509250929050565b7f4e487b7100000000000000000000000000000000000000000000000000000000600052602260045260246000fd5b6000600282049050600182168061276657607f821691505b6020821081036127795761277861271f565b5b50919050565b7f4e487b7100000000000000000000000000000000000000000000000000000000600052601160045260246000fd5b60006127b9826121f9565b91506127c4836121f9565b92508282026127d2816121f9565b915082820484148315176127e9576127e861277f565b5b5092915050565b7f4e487b7100000000000000000000000000000000000000000000000000000000600052601260045260246000fd5b600061282a826121f9565b9150612835836121f9565b925082612845576128446127f0565b5b828204905092915050565b600061285b826121f9565b9150612866836121f9565b925082820190508082111561287e5761287d61277f565b5b92915050565b7f41646472657373206973206e6f742063757272656e746c7920616e2061646d6960008201527f6e00000000000000000000000000000000000000000000000000000000000000602082015250565b60006128e06021836120f4565b91506128eb82612884565b604082019050919050565b6000602082019050818103600083015261290f816128d3565b9050919050565b7f43616e6e6f742072656d6f766520746865206c6173742061646d696e202d206960008201527f7420776f756c64206c6f636b2074686520636f6e747261637400000000000000602082015250565b60006129726039836120f4565b915061297d82612916565b604082019050919050565b600060208201905081810360008301526129a181612965565b9050919050565b60006129b3826121f9565b9150600082036129c6576129c561277f565b5b600182039050919050565b6129da816121bb565b82525050565b60006020820190506129f560008301846129d1565b92915050565b7f4e65772061646d696e206d757374206265206120746f6b656e20686f6c646572600082015250565b6000612a316020836120f4565b9150612a3c826129fb565b602082019050919050565b60006020820190508181036000830152612a6081612a24565b9050919050565b6000612a72826121f9565b91507fffffffffffffffffffffffffffffffffffffffffffffffffffffffffffffffff8203612aa457612aa361277f565b5b600182019050919050565b7f496e707574206172726179206c656e67746873206d69736d6174636800000000600082015250565b6000612ae5601c836120f4565b9150612af082612aaf565b602082019050919050565b60006020820190508181036000830152612b1481612ad8565b9050919050565b7f4e487b7100000000000000000000000000000000000000000000000000000000600052603260045260246000fd5b6000606082019050612b5f60008301866120bf565b612b6c60208301856120bf565b612b7960408301846122ef565b949350505050565b6000612b8c826121f9565b9150612b97836121f9565b9250828203905081811115612baf57612bae61277f565b5b92915050565b6000606082019050612bca60008301866129d1565b612bd760208301856122ef565b612be460408301846122ef565b949350505050565b6000604082019050612c0160008301856129d1565b612c0e60208301846123cf565b9392505050565b7f5472616e7366657273206172652064697361626c656400000000000000000000600082015250565b6000612c4b6016836120f4565b9150612c5682612c15565b602082019050919050565b60006020820190508181036000830152612c7a81612c3e565b9050919050565b7f526563697069656e74206d75737420626520616e206578697374696e6720746f60008201527f6b656e20686f6c64657200000000000000000000000000000000000000000000602082015250565b6000612cdd602a836120f4565b9150612ce882612c81565b604082019050919050565b60006020820190508181036000830152612d0c81612cd0565b905091905056fea26469706673582212201434d3bada716f69237b024c807fa95965a3d870249d8b3075beede4cb45dac064736f6c63430008180033",
  "linkReferences": {},
  "deployedLinkReferences": {}
}