{
  "_format": "hh-sol-artifact-1",
  "contractName": "TeamPointsFactory",
  "sourceName": "contracts/TeamPointsFactory.sol",
  "abi": [
    {
      "anonymous": false,
      "inputs": [
        {
          "indexed": true,
          "internalType": "address",
          "name": "contractAddress",
          "type": "address"
        },
        {
          "indexed": true,
          "internalType": "address",
          "name": "initialOwner",
          "type": "address"
        },
        {
          "indexed": false,
          "internalType": "string",
          "name": "name",
          "type": "string"
        },
        {
          "indexed": false,
          "internalType": "string",
          "name": "symbol",
          "type": "string"
        }
      ],
      "name": "TeamPointsCreated",
      "type": "event"
    },
    {
      "inputs": [
        {
          "internalType": "uint256",
          "name": "",
          "type": "uint256"
        }
      ],
      "name": "allTeamPoints",
      "outputs": [
        {
          "internalType": "address",
          "name": "",
          "type": "address"
        }
      ],
      "stateMutability": "view",
      "type": "function"
    },
    {
      "inputs": [
        {
          "internalType": "string",
          "name": "name",
          "type": "string"
        },
        {
          "internalType": "string",
          "name": "symbol",
          "type": "string"
        }
      ],
      "name": "deployTeamPoints",
      "outputs": [
        {
          "internalType": "address",
          "name": "contractAddress",
          "type": "address"
        }
      ],
      "stateMutability": "nonpayable",
      "type": "function"
    },
    {
      "inputs": [],
      "name": "getAllTeamPoints",
      "outputs": [
        {
          "internalType": "address[]",
          "name": "",
          "type": "address[]"
        }
      ],
      "stateMutability": "view",
      "type": "function"
    },
    {
      "inputs": [],
      "name": "getTeamPointsCount",
      "outputs": [
        {
          "internalType": "uint256",
          "name": "",
          "type": "uint256"
        }
      ],
      "stateMutability": "view",
      "type": "function"
    }
  ],
  "bytecode": "0x608060405234801561001057600080fd5b506141ef806100206000396000f3fe60806040523480156200001157600080fd5b5060043610620000525760003560e01c80635608b3651462000057578063665f8f5f146200008d5780639651862614620000af578063fc09381d14620000e5575b600080fd5b6200007560048036038101906200006f91906200036c565b62000107565b604051620000849190620003e3565b60405180910390f35b6200009762000147565b604051620000a69190620004ce565b60405180910390f35b620000cd6004803603810190620000c7919062000654565b620001d7565b604051620000dc9190620003e3565b60405180910390f35b620000ef62000303565b604051620000fe9190620006ea565b60405180910390f35b600081815481106200011857600080fd5b906000526020600020016000915054906101000a900473ffffffffffffffffffffffffffffffffffffffff1681565b60606000805480602002602001604051908101604052809291908181526020018280548015620001cd57602002820191906000526020600020905b8160009054906101000a900473ffffffffffffffffffffffffffffffffffffffff1673ffffffffffffffffffffffffffffffffffffffff168152602001906001019080831162000182575b5050505050905090565b60008033600080610fa06107d06000610fa08a8a604051620001f9906200030f565b6200020d999897969594939291906200083d565b604051809103906000f0801580156200022a573d6000803e3d6000fd5b5090508091506000829080600181540180825580915050600190039060005260206000200160009091909190916101000a81548173ffffffffffffffffffffffffffffffffffffffff021916908373ffffffffffffffffffffffffffffffffffffffff1602179055503373ffffffffffffffffffffffffffffffffffffffff168273ffffffffffffffffffffffffffffffffffffffff167ff8e87bdac81c247a288b9046d1f75bf949a7edd2978243eb1eeb99da79f9ffad8686604051620002f4929190620008ea565b60405180910390a35092915050565b60008080549050905090565b613894806200092683390190565b6000604051905090565b600080fd5b600080fd5b6000819050919050565b620003468162000331565b81146200035257600080fd5b50565b60008135905062000366816200033b565b92915050565b60006020828403121562000385576200038462000327565b5b6000620003958482850162000355565b91505092915050565b600073ffffffffffffffffffffffffffffffffffffffff82169050919050565b6000620003cb826200039e565b9050919050565b620003dd81620003be565b82525050565b6000602082019050620003fa6000830184620003d2565b92915050565b600081519050919050565b600082825260208201905092915050565b6000819050602082019050919050565b6200043781620003be565b82525050565b60006200044b83836200042c565b60208301905092915050565b6000602082019050919050565b6000620004718262000400565b6200047d81856200040b565b93506200048a836200041c565b8060005b83811015620004c1578151620004a588826200043d565b9750620004b28362000457565b9250506001810190506200048e565b5085935050505092915050565b60006020820190508181036000830152620004ea818462000464565b905092915050565b600080fd5b600080fd5b6000601f19601f8301169050919050565b7f4e487b7100000000000000000000000000000000000000000000000000000000600052604160045260246000fd5b6200054782620004fc565b810181811067ffffffffffffffff821117156200056957620005686200050d565b5b80604052505050565b60006200057e6200031d565b90506200058c82826200053c565b919050565b600067ffffffffffffffff821115620005af57620005ae6200050d565b5b620005ba82620004fc565b9050602081019050919050565b82818337600083830152505050565b6000620005ed620005e78462000591565b62000572565b9050828152602081018484840111156200060c576200060b620004f7565b5b62000619848285620005c7565b509392505050565b600082601f830112620006395762000638620004f2565b5b81356200064b848260208601620005d6565b91505092915050565b600080604083850312156200066e576200066d62000327565b5b600083013567ffffffffffffffff8111156200068f576200068e6200032c565b5b6200069d8582860162000621565b925050602083013567ffffffffffffffff811115620006c157620006c06200032c565b5b620006cf8582860162000621565b9150509250929050565b620006e48162000331565b82525050565b6000602082019050620007016000830184620006d9565b92915050565b60008115159050919050565b6200071e8162000707565b82525050565b6000819050919050565b6000819050919050565b600062000759620007536200074d8462000724565b6200072e565b62000331565b9050919050565b6200076b8162000738565b82525050565b6000819050919050565b60006200079c62000796620007908462000771565b6200072e565b62000331565b9050919050565b620007ae816200077b565b82525050565b600081519050919050565b600082825260208201905092915050565b60005b83811015620007f0578082015181840152602081019050620007d3565b60008484015250505050565b60006200080982620007b4565b620008158185620007bf565b935062000827818560208601620007d0565b6200083281620004fc565b840191505092915050565b60006101208201905062000855600083018c620003d2565b62000864602083018b62000713565b62000873604083018a62000713565b62000882606083018962000760565b620008916080830188620007a3565b620008a060a083018762000713565b620008af60c083018662000760565b81810360e0830152620008c38185620007fc565b9050818103610100830152620008da8184620007fc565b90509a9950505050505050505050565b60006040820190508181036000830152620009068185620007fc565b905081810360208301526200091c8184620007fc565b9050939250505056fe60806040523480156200001157600080fd5b5060405162003894380380620038948339818101604052810190620000379190620005a9565b818181600390816200004a919062000907565b5080600490816200005c919062000907565b505050620000917fa49807205ce4d355092ef5a8a18f56e8913cf4a201fbe287825b095693c21775806200013e60201b60201c565b620000c37fa49807205ce4d355092ef5a8a18f56e8913cf4a201fbe287825b095693c217758a620001a260201b60201c565b506001600b8190555087600660006101000a81548160ff02191690831515021790555086600660016101000a81548160ff021916908315150217905550856007819055508460088190555083600960006101000a81548160ff02191690831515021790555082600a81905550505050505050505050620009ee565b60006200015183620002a660201b60201c565b90508160056000858152602001908152602001600020600101819055508181847fbd79b86ffe0ab8e8776151514217cd7cacd52c909f66475c3af44e129f0b00ff60405160405180910390a4505050565b6000620001b68383620002c660201b60201c565b6200029b5760016005600085815260200190815260200160002060000160008473ffffffffffffffffffffffffffffffffffffffff1673ffffffffffffffffffffffffffffffffffffffff16815260200190815260200160002060006101000a81548160ff021916908315150217905550620002376200033160201b60201c565b73ffffffffffffffffffffffffffffffffffffffff168273ffffffffffffffffffffffffffffffffffffffff16847f2f8788117e7eff1d82e926ec794901d17c78024a50270940304540a733656f0d60405160405180910390a460019050620002a0565b600090505b92915050565b600060056000838152602001908152602001600020600101549050919050565b60006005600084815260200190815260200160002060000160008373ffffffffffffffffffffffffffffffffffffffff1673ffffffffffffffffffffffffffffffffffffffff16815260200190815260200160002060009054906101000a900460ff16905092915050565b600033905090565b6000604051905090565b600080fd5b600080fd5b600073ffffffffffffffffffffffffffffffffffffffff82169050919050565b60006200037a826200034d565b9050919050565b6200038c816200036d565b81146200039857600080fd5b50565b600081519050620003ac8162000381565b92915050565b60008115159050919050565b620003c981620003b2565b8114620003d557600080fd5b50565b600081519050620003e981620003be565b92915050565b6000819050919050565b6200040481620003ef565b81146200041057600080fd5b50565b6000815190506200042481620003f9565b92915050565b600080fd5b600080fd5b6000601f19601f8301169050919050565b7f4e487b7100000000000000000000000000000000000000000000000000000000600052604160045260246000fd5b6200047f8262000434565b810181811067ffffffffffffffff82111715620004a157620004a062000445565b5b80604052505050565b6000620004b662000339565b9050620004c4828262000474565b919050565b600067ffffffffffffffff821115620004e757620004e662000445565b5b620004f28262000434565b9050602081019050919050565b60005b838110156200051f57808201518184015260208101905062000502565b60008484015250505050565b6000620005426200053c84620004c9565b620004aa565b9050828152602081018484840111156200056157620005606200042f565b5b6200056e848285620004ff565b509392505050565b600082601f8301126200058e576200058d6200042a565b5b8151620005a08482602086016200052b565b91505092915050565b60008060008060008060008060006101208a8c031215620005cf57620005ce62000343565b5b6000620005df8c828d016200039b565b9950506020620005f28c828d01620003d8565b9850506040620006058c828d01620003d8565b9750506060620006188c828d0162000413565b96505060806200062b8c828d0162000413565b95505060a06200063e8c828d01620003d8565b94505060c0620006518c828d0162000413565b93505060e08a015167ffffffffffffffff81111562000675576200067462000348565b5b620006838c828d0162000576565b9250506101008a015167ffffffffffffffff811115620006a857620006a762000348565b5b620006b68c828d0162000576565b9150509295985092959850929598565b600081519050919050565b7f4e487b7100000000000000000000000000000000000000000000000000000000600052602260045260246000fd5b600060028204905060018216806200071957607f821691505b6020821081036200072f576200072e620006d1565b5b50919050565b60008190508160005260206000209050919050565b60006020601f8301049050919050565b600082821b905092915050565b600060088302620007997fffffffffffffffffffffffffffffffffffffffffffffffffffffffffffffffff826200075a565b620007a586836200075a565b95508019841693508086168417925050509392505050565b6000819050919050565b6000620007e8620007e2620007dc84620003ef565b620007bd565b620003ef565b9050919050565b6000819050919050565b6200080483620007c7565b6200081c6200081382620007ef565b84845462000767565b825550505050565b600090565b6200083362000824565b62000840818484620007f9565b505050565b5b8181101562000868576200085c60008262000829565b60018101905062000846565b5050565b601f821115620008b757620008818162000735565b6200088c846200074a565b810160208510156200089c578190505b620008b4620008ab856200074a565b83018262000845565b50505b505050565b600082821c905092915050565b6000620008dc60001984600802620008bc565b1980831691505092915050565b6000620008f78383620008c9565b9150826002028217905092915050565b6200091282620006c6565b67ffffffffffffffff8111156200092e576200092d62000445565b5b6200093a825462000700565b620009478282856200086c565b600060209050601f8311600181146200097f57600084156200096a578287015190505b620009768582620008e9565b865550620009e6565b601f1984166200098f8662000735565b60005b82811015620009b95784890151825560018201915060208501945060208101905062000992565b86831015620009d95784890151620009d5601f891682620008c9565b8355505b6001600288020188555050505b505050505050565b612e9680620009fe6000396000f3fe608060405234801561001057600080fd5b50600436106101e55760003560e01c8063704802751161010f578063b5f1e241116100a2578063d559f05b11610071578063d559f05b14610596578063dd62ed3e146105b2578063e84e581d146105e2578063f05af87f14610612576101e5565b8063b5f1e24114610520578063b8d12b571461053e578063d3fe516e1461055c578063d547741f1461057a576101e5565b806395d89b41116100de57806395d89b4114610498578063a217fddf146104b6578063a9059cbb146104d4578063a92b391c14610504576101e5565b806370480275146103fe57806370a082311461041a57806375b238fc1461044a57806391d1485414610468576101e5565b806323b872dd11610187578063313ce56711610156578063313ce5671461038857806336568abe146103a65780633e6be85f146103c257806367a4c8fe146103e0576101e5565b806323b872dd146102dc578063248a9ca31461030c57806324d7806c1461033c5780632f2ff15d1461036c576101e5565b8063156e29f6116101c3578063156e29f6146102685780631785f53c1461028457806318160ddd146102a05780632121dc75146102be576101e5565b806301ffc9a7146101ea57806306fdde031461021a578063095ea7b314610238575b600080fd5b61020460048036038101906101ff919061216f565b61062e565b60405161021191906121b7565b60405180910390f35b6102226106a8565b60405161022f9190612262565b60405180910390f35b610252600480360381019061024d9190612318565b61073a565b60405161025f91906121b7565b60405180910390f35b610282600480360381019061027d9190612358565b61075d565b005b61029e600480360381019061029991906123ab565b61091e565b005b6102a8610a74565b6040516102b591906123e7565b60405180910390f35b6102c6610a7e565b6040516102d391906121b7565b60405180910390f35b6102f660048036038101906102f19190612402565b610a91565b60405161030391906121b7565b60405180910390f35b6103266004803603810190610321919061248b565b610ac0565b60405161033391906124c7565b60405180910390f35b610356600480360381019061035191906123ab565b610ae0565b60405161036391906121b7565b60405180910390f35b610386600480360381019061038191906124e2565b610b13565b005b610390610b35565b60405161039d919061253e565b60405180910390f35b6103c060048036038101906103bb91906124e2565b610b3e565b005b6103ca610bb9565b6040516103d791906121b7565b60405180910390f35b6103e8610bcc565b6040516103f591906121b7565b60405180910390f35b610418600480360381019061041391906123ab565b610bdf565b005b610434600480360381019061042f91906123ab565b610d42565b60405161044191906123e7565b60405180910390f35b610452610d8a565b60405161045f91906124c7565b60405180910390f35b610482600480360381019061047d91906124e2565b610dae565b60405161048f91906121b7565b60405180910390f35b6104a0610e19565b6040516104ad9190612262565b60405180910390f35b6104be610eab565b6040516104cb91906124c7565b60405180910390f35b6104ee60048036038101906104e99190612318565b610eb2565b6040516104fb91906121b7565b60405180910390f35b61051e60048036038101906105199190612614565b610ed5565b005b6105286110d8565b60405161053591906123e7565b60405180910390f35b6105466110de565b60405161055391906123e7565b60405180910390f35b6105646110e4565b60405161057191906123e7565b60405180910390f35b610594600480360381019061058f91906124e2565b6110ea565b005b6105b060048036038101906105ab9190612695565b61110c565b005b6105cc60048036038101906105c79190612749565b611461565b6040516105d991906123e7565b60405180910390f35b6105fc60048036038101906105f791906123ab565b6114e8565b60405161060991906123e7565b60405180910390f35b61062c600480360381019061062791906127b5565b6115f0565b005b60007f7965db0b000000000000000000000000000000000000000000000000000000007bffffffffffffffffffffffffffffffffffffffffffffffffffffffff1916827bffffffffffffffffffffffffffffffffffffffffffffffffffffffff191614806106a157506106a0826116c7565b5b9050919050565b6060600380546106b790612871565b80601f01602080910402602001604051908101604052809291908181526020018280546106e390612871565b80156107305780601f1061070557610100808354040283529160200191610730565b820191906000526020600020905b81548152906001019060200180831161071357829003601f168201915b5050505050905090565b600080610745611731565b9050610752818585611739565b600191505092915050565b7fa49807205ce4d355092ef5a8a18f56e8913cf4a201fbe287825b095693c217756107878161174b565b6000600d60008673ffffffffffffffffffffffffffffffffffffffff1673ffffffffffffffffffffffffffffffffffffffff16815260200190815260200160002054036108135742600d60008673ffffffffffffffffffffffffffffffffffffffff1673ffffffffffffffffffffffffffffffffffffffff168152602001908152602001600020819055505b600061081e856114e8565b905060006103e8828561083191906128d1565b61083b9190612942565b6103e86007548761084c91906128d1565b6108569190612942565b6108609190612973565b905061086c868261175f565b600c60008773ffffffffffffffffffffffffffffffffffffffff1673ffffffffffffffffffffffffffffffffffffffff16815260200190815260200160002060009054906101000a900460ff16610916576001600c60008873ffffffffffffffffffffffffffffffffffffffff1673ffffffffffffffffffffffffffffffffffffffff16815260200190815260200160002060006101000a81548160ff0219169083151502179055505b505050505050565b7fa49807205ce4d355092ef5a8a18f56e8913cf4a201fbe287825b095693c217756109488161174b565b6109727fa49807205ce4d355092ef5a8a18f56e8913cf4a201fbe287825b095693c2177583610dae565b6109b1576040517f08c379a00000000000000000000000000000000000000000000000000000000081526004016109a890612a19565b60405180910390fd5b6001600b54116109f6576040517f08c379a00000000000000000000000000000000000000000000000000000000081526004016109ed90612aab565b60405180910390fd5b610a207fa49807205ce4d355092ef5a8a18f56e8913cf4a201fbe287825b095693c21775836117e1565b50600b6000815480929190610a3490612acb565b91905055507fa3b62bc36326052d97ea62d63c3d60308ed4c3ea8ac079dd8499f1e9c4f80c0f82604051610a689190612b03565b60405180910390a15050565b6000600254905090565b600660009054906101000a900460ff1681565b600080610a9c611731565b9050610aa98582856118d4565b610ab4858585611968565b60019150509392505050565b600060056000838152602001908152602001600020600101549050919050565b6000610b0c7fa49807205ce4d355092ef5a8a18f56e8913cf4a201fbe287825b095693c2177583610dae565b9050919050565b610b1c82610ac0565b610b258161174b565b610b2f8383611a5c565b50505050565b60006012905090565b610b46611731565b73ffffffffffffffffffffffffffffffffffffffff168173ffffffffffffffffffffffffffffffffffffffff1614610baa576040517f6697b23200000000000000000000000000000000000000000000000000000000815260040160405180910390fd5b610bb482826117e1565b505050565b600960009054906101000a900460ff1681565b600660019054906101000a900460ff1681565b7fa49807205ce4d355092ef5a8a18f56e8913cf4a201fbe287825b095693c21775610c098161174b565b600c60008373ffffffffffffffffffffffffffffffffffffffff1673ffffffffffffffffffffffffffffffffffffffff16815260200190815260200160002060009054906101000a900460ff16610c95576040517f08c379a0000000000000000000000000000000000000000000000000000000008152600401610c8c90612b6a565b60405180910390fd5b610cbf7fa49807205ce4d355092ef5a8a18f56e8913cf4a201fbe287825b095693c2177583610dae565b610d3e57610ced7fa49807205ce4d355092ef5a8a18f56e8913cf4a201fbe287825b095693c2177583611a5c565b50600b6000815480929190610d0190612b8a565b91905055507f44d6d25963f097ad14f29f06854a01f575648a1ef82f30e562ccd3889717e33982604051610d359190612b03565b60405180910390a15b5050565b60008060008373ffffffffffffffffffffffffffffffffffffffff1673ffffffffffffffffffffffffffffffffffffffff168152602001908152602001600020549050919050565b7fa49807205ce4d355092ef5a8a18f56e8913cf4a201fbe287825b095693c2177581565b60006005600084815260200190815260200160002060000160008373ffffffffffffffffffffffffffffffffffffffff1673ffffffffffffffffffffffffffffffffffffffff16815260200190815260200160002060009054906101000a900460ff16905092915050565b606060048054610e2890612871565b80601f0160208091040260200160405190810160405280929190818152602001828054610e5490612871565b8015610ea15780601f10610e7657610100808354040283529160200191610ea1565b820191906000526020600020905b815481529060010190602001808311610e8457829003601f168201915b5050505050905090565b6000801b81565b600080610ebd611731565b9050610eca818585611968565b600191505092915050565b7fa49807205ce4d355092ef5a8a18f56e8913cf4a201fbe287825b095693c21775610eff8161174b565b828290508585905014610f47576040517f08c379a0000000000000000000000000000000000000000000000000000000008152600401610f3e90612c1e565b60405180910390fd5b60005b858590508110156110a457610f9f868683818110610f6b57610f6a612c3e565b5b9050602002016020810190610f8091906123ab565b858584818110610f9357610f92612c3e565b5b9050602002013561175f565b600c6000878784818110610fb657610fb5612c3e565b5b9050602002016020810190610fcb91906123ab565b73ffffffffffffffffffffffffffffffffffffffff1673ffffffffffffffffffffffffffffffffffffffff16815260200190815260200160002060009054906101000a900460ff16611097576001600c60008888858181106110305761102f612c3e565b5b905060200201602081019061104591906123ab565b73ffffffffffffffffffffffffffffffffffffffff1673ffffffffffffffffffffffffffffffffffffffff16815260200190815260200160002060006101000a81548160ff0219169083151502179055505b8080600101915050610f4a565b507f69bc07a97070d6e2570eb0693f430632a337e4e01dbeb1fd0048b5ca5303788460405160405180910390a15050505050565b60085481565b600a5481565b60075481565b6110f382610ac0565b6110fc8161174b565b61110683836117e1565b50505050565b7fa49807205ce4d355092ef5a8a18f56e8913cf4a201fbe287825b095693c217756111368161174b565b848490508787905014801561115057508282905087879050145b61118f576040517f08c379a000000000000000000000000000000000000000000000000000000000815260040161118690612c1e565b60405180910390fd5b60005b87879050811015611457576000600d60008a8a858181106111b6576111b5612c3e565b5b90506020020160208101906111cb91906123ab565b73ffffffffffffffffffffffffffffffffffffffff1673ffffffffffffffffffffffffffffffffffffffff16815260200190815260200160002054036112775742600d60008a8a8581811061122357611222612c3e565b5b905060200201602081019061123891906123ab565b73ffffffffffffffffffffffffffffffffffffffff1673ffffffffffffffffffffffffffffffffffffffff168152602001908152602001600020819055505b60006112a989898481811061128f5761128e612c3e565b5b90506020020160208101906112a491906123ab565b6114e8565b905060006103e8828787868181106112c4576112c3612c3e565b5b905060200201356112d591906128d1565b6112df9190612942565b6103e86007548a8a878181106112f8576112f7612c3e565b5b9050602002013561130991906128d1565b6113139190612942565b61131d9190612973565b90506113508a8a8581811061133557611334612c3e565b5b905060200201602081019061134a91906123ab565b8261175f565b600c60008b8b8681811061136757611366612c3e565b5b905060200201602081019061137c91906123ab565b73ffffffffffffffffffffffffffffffffffffffff1673ffffffffffffffffffffffffffffffffffffffff16815260200190815260200160002060009054906101000a900460ff16611448576001600c60008c8c878181106113e1576113e0612c3e565b5b90506020020160208101906113f691906123ab565b73ffffffffffffffffffffffffffffffffffffffff1673ffffffffffffffffffffffffffffffffffffffff16815260200190815260200160002060006101000a81548160ff0219169083151502179055505b50508080600101915050611192565b5050505050505050565b6000600160008473ffffffffffffffffffffffffffffffffffffffff1673ffffffffffffffffffffffffffffffffffffffff16815260200190815260200160002060008373ffffffffffffffffffffffffffffffffffffffff1673ffffffffffffffffffffffffffffffffffffffff16815260200190815260200160002054905092915050565b600080600d60008473ffffffffffffffffffffffffffffffffffffffff1673ffffffffffffffffffffffffffffffffffffffff168152602001908152602001600020540361153a5760085490506115eb565b600960009054906101000a900460ff166115585760085490506115eb565b600062ed4e00600d60008573ffffffffffffffffffffffffffffffffffffffff1673ffffffffffffffffffffffffffffffffffffffff16815260200190815260200160002054426115a99190612c6d565b6115b39190612942565b90506000607d826115c491906128d1565b6008546115d19190612973565b9050600a5481116115e257806115e6565b600a545b925050505b919050565b7fa49807205ce4d355092ef5a8a18f56e8913cf4a201fbe287825b095693c2177561161a8161174b565b86600660006101000a81548160ff02191690831515021790555085600660016101000a81548160ff021916908315150217905550846007819055508360088190555082600960006101000a81548160ff02191690831515021790555081600a819055507f8c26b33ec4ce28403d14dbf36bdeee84b2f59e4524de9f7800edde167d3bd2e68787878787876040516116b696959493929190612ca1565b60405180910390a150505050505050565b60007f01ffc9a7000000000000000000000000000000000000000000000000000000007bffffffffffffffffffffffffffffffffffffffffffffffffffffffff1916827bffffffffffffffffffffffffffffffffffffffffffffffffffffffff1916149050919050565b600033905090565b6117468383836001611b4e565b505050565b61175c81611757611731565b611d25565b50565b600073ffffffffffffffffffffffffffffffffffffffff168273ffffffffffffffffffffffffffffffffffffffff16036117d15760006040517fec442f050000000000000000000000000000000000000000000000000000000081526004016117c89190612b03565b60405180910390fd5b6117dd60008383611d76565b5050565b60006117ed8383610dae565b156118c95760006005600085815260200190815260200160002060000160008473ffffffffffffffffffffffffffffffffffffffff1673ffffffffffffffffffffffffffffffffffffffff16815260200190815260200160002060006101000a81548160ff021916908315150217905550611866611731565b73ffffffffffffffffffffffffffffffffffffffff168273ffffffffffffffffffffffffffffffffffffffff16847ff6391f5c32d9c69d2a47ea670b442974b53935d1edc7fd64eb21e047a839171b60405160405180910390a4600190506118ce565b600090505b92915050565b60006118e08484611461565b90507fffffffffffffffffffffffffffffffffffffffffffffffffffffffffffffffff81146119625781811015611952578281836040517ffb8f41b200000000000000000000000000000000000000000000000000000000815260040161194993929190612d02565b60405180910390fd5b61196184848484036000611b4e565b5b50505050565b600073ffffffffffffffffffffffffffffffffffffffff168373ffffffffffffffffffffffffffffffffffffffff16036119da5760006040517f96c6fd1e0000000000000000000000000000000000000000000000000000000081526004016119d19190612b03565b60405180910390fd5b600073ffffffffffffffffffffffffffffffffffffffff168273ffffffffffffffffffffffffffffffffffffffff1603611a4c5760006040517fec442f05000000000000000000000000000000000000000000000000000000008152600401611a439190612b03565b60405180910390fd5b611a57838383611d76565b505050565b6000611a688383610dae565b611b435760016005600085815260200190815260200160002060000160008473ffffffffffffffffffffffffffffffffffffffff1673ffffffffffffffffffffffffffffffffffffffff16815260200190815260200160002060006101000a81548160ff021916908315150217905550611ae0611731565b73ffffffffffffffffffffffffffffffffffffffff168273ffffffffffffffffffffffffffffffffffffffff16847f2f8788117e7eff1d82e926ec794901d17c78024a50270940304540a733656f0d60405160405180910390a460019050611b48565b600090505b92915050565b600073ffffffffffffffffffffffffffffffffffffffff168473ffffffffffffffffffffffffffffffffffffffff1603611bc05760006040517fe602df05000000000000000000000000000000000000000000000000000000008152600401611bb79190612b03565b60405180910390fd5b600073ffffffffffffffffffffffffffffffffffffffff168373ffffffffffffffffffffffffffffffffffffffff1603611c325760006040517f94280d62000000000000000000000000000000000000000000000000000000008152600401611c299190612b03565b60405180910390fd5b81600160008673ffffffffffffffffffffffffffffffffffffffff1673ffffffffffffffffffffffffffffffffffffffff16815260200190815260200160002060008573ffffffffffffffffffffffffffffffffffffffff1673ffffffffffffffffffffffffffffffffffffffff168152602001908152602001600020819055508015611d1f578273ffffffffffffffffffffffffffffffffffffffff168473ffffffffffffffffffffffffffffffffffffffff167f8c5be1e5ebec7d5bd14f71427d1e84f3dd0314c0f7b2291e5b200ac8c7c3b92584604051611d1691906123e7565b60405180910390a35b50505050565b611d2f8282610dae565b611d725780826040517fe2517d3f000000000000000000000000000000000000000000000000000000008152600401611d69929190612d39565b60405180910390fd5b5050565b600660009054906101000a900460ff1680611dbd5750600073ffffffffffffffffffffffffffffffffffffffff168373ffffffffffffffffffffffffffffffffffffffff16145b611dfc576040517f08c379a0000000000000000000000000000000000000000000000000000000008152600401611df390612dae565b60405180910390fd5b600660019054906101000a900460ff16158015611e465750600073ffffffffffffffffffffffffffffffffffffffff168373ffffffffffffffffffffffffffffffffffffffff1614155b15611ed857600c60008373ffffffffffffffffffffffffffffffffffffffff1673ffffffffffffffffffffffffffffffffffffffff16815260200190815260200160002060009054906101000a900460ff16611ed7576040517f08c379a0000000000000000000000000000000000000000000000000000000008152600401611ece90612e40565b60405180910390fd5b5b611ee3838383611ee8565b505050565b600073ffffffffffffffffffffffffffffffffffffffff168373ffffffffffffffffffffffffffffffffffffffff1603611f3a578060026000828254611f2e9190612973565b9250508190555061200d565b60008060008573ffffffffffffffffffffffffffffffffffffffff1673ffffffffffffffffffffffffffffffffffffffff16815260200190815260200160002054905081811015611fc6578381836040517fe450d38c000000000000000000000000000000000000000000000000000000008152600401611fbd93929190612d02565b60405180910390fd5b8181036000808673ffffffffffffffffffffffffffffffffffffffff1673ffffffffffffffffffffffffffffffffffffffff16815260200190815260200160002081905550505b600073ffffffffffffffffffffffffffffffffffffffff168273ffffffffffffffffffffffffffffffffffffffff160361205657806002600082825403925050819055506120a3565b806000808473ffffffffffffffffffffffffffffffffffffffff1673ffffffffffffffffffffffffffffffffffffffff168152602001908152602001600020600082825401925050819055505b8173ffffffffffffffffffffffffffffffffffffffff168373ffffffffffffffffffffffffffffffffffffffff167fddf252ad1be2c89b69c2b068fc378daa952ba7f163c4a11628f55a4df523b3ef8360405161210091906123e7565b60405180910390a3505050565b600080fd5b600080fd5b60007fffffffff0000000000000000000000000000000000000000000000000000000082169050919050565b61214c81612117565b811461215757600080fd5b50565b60008135905061216981612143565b92915050565b6000602082840312156121855761218461210d565b5b60006121938482850161215a565b91505092915050565b60008115159050919050565b6121b18161219c565b82525050565b60006020820190506121cc60008301846121a8565b92915050565b600081519050919050565b600082825260208201905092915050565b60005b8381101561220c5780820151818401526020810190506121f1565b60008484015250505050565b6000601f19601f8301169050919050565b6000612234826121d2565b61223e81856121dd565b935061224e8185602086016121ee565b61225781612218565b840191505092915050565b6000602082019050818103600083015261227c8184612229565b905092915050565b600073ffffffffffffffffffffffffffffffffffffffff82169050919050565b60006122af82612284565b9050919050565b6122bf816122a4565b81146122ca57600080fd5b50565b6000813590506122dc816122b6565b92915050565b6000819050919050565b6122f5816122e2565b811461230057600080fd5b50565b600081359050612312816122ec565b92915050565b6000806040838503121561232f5761232e61210d565b5b600061233d858286016122cd565b925050602061234e85828601612303565b9150509250929050565b6000806000606084860312156123715761237061210d565b5b600061237f868287016122cd565b935050602061239086828701612303565b92505060406123a186828701612303565b9150509250925092565b6000602082840312156123c1576123c061210d565b5b60006123cf848285016122cd565b91505092915050565b6123e1816122e2565b82525050565b60006020820190506123fc60008301846123d8565b92915050565b60008060006060848603121561241b5761241a61210d565b5b6000612429868287016122cd565b935050602061243a868287016122cd565b925050604061244b86828701612303565b9150509250925092565b6000819050919050565b61246881612455565b811461247357600080fd5b50565b6000813590506124858161245f565b92915050565b6000602082840312156124a1576124a061210d565b5b60006124af84828501612476565b91505092915050565b6124c181612455565b82525050565b60006020820190506124dc60008301846124b8565b92915050565b600080604083850312156124f9576124f861210d565b5b600061250785828601612476565b9250506020612518858286016122cd565b9150509250929050565b600060ff82169050919050565b61253881612522565b82525050565b6000602082019050612553600083018461252f565b92915050565b600080fd5b600080fd5b600080fd5b60008083601f84011261257e5761257d612559565b5b8235905067ffffffffffffffff81111561259b5761259a61255e565b5b6020830191508360208202830111156125b7576125b6612563565b5b9250929050565b60008083601f8401126125d4576125d3612559565b5b8235905067ffffffffffffffff8111156125f1576125f061255e565b5b60208301915083602082028301111561260d5761260c612563565b5b9250929050565b6000806000806040858703121561262e5761262d61210d565b5b600085013567ffffffffffffffff81111561264c5761264b612112565b5b61265887828801612568565b9450945050602085013567ffffffffffffffff81111561267b5761267a612112565b5b612687878288016125be565b925092505092959194509250565b600080600080600080606087890312156126b2576126b161210d565b5b600087013567ffffffffffffffff8111156126d0576126cf612112565b5b6126dc89828a01612568565b9650965050602087013567ffffffffffffffff8111156126ff576126fe612112565b5b61270b89828a016125be565b9450945050604087013567ffffffffffffffff81111561272e5761272d612112565b5b61273a89828a016125be565b92509250509295509295509295565b600080604083850312156127605761275f61210d565b5b600061276e858286016122cd565b925050602061277f858286016122cd565b9150509250929050565b6127928161219c565b811461279d57600080fd5b50565b6000813590506127af81612789565b92915050565b60008060008060008060c087890312156127d2576127d161210d565b5b60006127e089828a016127a0565b96505060206127f189828a016127a0565b955050604061280289828a01612303565b945050606061281389828a01612303565b935050608061282489828a016127a0565b92505060a061283589828a01612303565b9150509295509295509295565b7f4e487b7100000000000000000000000000000000000000000000000000000000600052602260045260246000fd5b6000600282049050600182168061288957607f821691505b60208210810361289c5761289b612842565b5b50919050565b7f4e487b7100000000000000000000000000000000000000000000000000000000600052601160045260246000fd5b60006128dc826122e2565b91506128e7836122e2565b92508282026128f5816122e2565b9150828204841483151761290c5761290b6128a2565b5b5092915050565b7f4e487b7100000000000000000000000000000000000000000000000000000000600052601260045260246000fd5b600061294d826122e2565b9150612958836122e2565b92508261296857612967612913565b5b828204905092915050565b600061297e826122e2565b9150612989836122e2565b92508282019050808211156129a1576129a06128a2565b5b92915050565b7f41646472657373206973206e6f742063757272656e746c7920616e2061646d6960008201527f6e00000000000000000000000000000000000000000000000000000000000000602082015250565b6000612a036021836121dd565b9150612a0e826129a7565b604082019050919050565b60006020820190508181036000830152612a32816129f6565b9050919050565b7f43616e6e6f742072656d6f766520746865206c6173742061646d696e202d206960008201527f7420776f756c64206c6f636b2074686520636f6e747261637400000000000000602082015250565b6000612a956039836121dd565b9150612aa082612a39565b604082019050919050565b60006020820190508181036000830152612ac481612a88565b9050919050565b6000612ad6826122e2565b915060008203612ae957612ae86128a2565b5b600182039050919050565b612afd816122a4565b82525050565b6000602082019050612b186000830184612af4565b92915050565b7f4e65772061646d696e206d757374206265206120746f6b656e20686f6c646572600082015250565b6000612b546020836121dd565b9150612b5f82612b1e565b602082019050919050565b60006020820190508181036000830152612b8381612b47565b9050919050565b6000612b95826122e2565b91507fffffffffffffffffffffffffffffffffffffffffffffffffffffffffffffffff8203612bc757612bc66128a2565b5b600182019050919050565b7f496e707574206172726179206c656e67746873206d69736d6174636800000000600082015250565b6000612c08601c836121dd565b9150612c1382612bd2565b602082019050919050565b60006020820190508181036000830152612c3781612bfb565b9050919050565b7f4e487b7100000000000000000000000000000000000000000000000000000000600052603260045260246000fd5b6000612c78826122e2565b9150612c83836122e2565b9250828203905081811115612c9b57612c9a6128a2565b5b92915050565b600060c082019050612cb660008301896121a8565b612cc360208301886121a8565b612cd060408301876123d8565b612cdd60608301866123d8565b612cea60808301856121a8565b612cf760a08301846123d8565b979650505050505050565b6000606082019050612d176000830186612af4565b612d2460208301856123d8565b612d3160408301846123d8565b949350505050565b6000604082019050612d4e6000830185612af4565b612d5b60208301846124b8565b9392505050565b7f5472616e7366657273206172652064697361626c656400000000000000000000600082015250565b6000612d986016836121dd565b9150612da382612d62565b602082019050919050565b60006020820190508181036000830152612dc781612d8b565b9050919050565b7f526563697069656e74206d75737420626520616e206578697374696e6720746f60008201527f6b656e20686f6c64657200000000000000000000000000000000000000000000602082015250565b6000612e2a602a836121dd565b9150612e3582612dce565b604082019050919050565b60006020820190508181036000830152612e5981612e1d565b905091905056fea26469706673582212205d90386b72695bc24f0bf17939d4530107e880aba6aa9840e0d09b850dfab42c64736f6c63430008180033a2646970667358221220789156371b2beecc36d38c22511763ab9543b88b43724753fd6d69b2cbfa3a3164736f6c63430008180033",
  "linkReferences": {},
  "deployedLinkReferences": {}
}